{
  "contractName": "MusicMarketplace",
  "abi": [
    {
      "inputs": [
        {
          "internalType": "address",
          "name": "_nftContract",
          "type": "address"
        }
      ],
      "stateMutability": "nonpayable",
      "type": "constructor"
    },
    {
      "anonymous": false,
      "inputs": [
        {
          "indexed": false,
          "internalType": "uint256",
          "name": "tokenId",
          "type": "uint256"
        },
        {
          "indexed": false,
          "internalType": "address",
          "name": "seller",
          "type": "address"
        },
        {
          "indexed": false,
          "internalType": "uint256",
          "name": "price",
          "type": "uint256"
        }
      ],
      "name": "MarketItemCreated",
      "type": "event"
    },
    {
      "anonymous": false,
      "inputs": [
        {
          "indexed": false,
          "internalType": "uint256",
          "name": "tokenId",
          "type": "uint256"
        },
        {
          "indexed": false,
          "internalType": "address",
          "name": "seller",
          "type": "address"
        },
        {
          "indexed": false,
          "internalType": "address",
          "name": "buyer",
          "type": "address"
        },
        {
          "indexed": false,
          "internalType": "uint256",
          "name": "price",
          "type": "uint256"
        }
      ],
      "name": "MarketItemSold",
      "type": "event"
    },
    {
      "inputs": [],
      "name": "nftContract",
      "outputs": [
        {
          "internalType": "contract MusicNFT",
          "name": "",
          "type": "address"
        }
      ],
      "stateMutability": "view",
      "type": "function",
      "constant": true
    },
    {
      "inputs": [],
      "name": "platformFee",
      "outputs": [
        {
          "internalType": "uint256",
          "name": "",
          "type": "uint256"
        }
      ],
      "stateMutability": "view",
      "type": "function",
      "constant": true
    },
    {
      "inputs": [],
      "name": "platformOwner",
      "outputs": [
        {
          "internalType": "address payable",
          "name": "",
          "type": "address"
        }
      ],
      "stateMutability": "view",
      "type": "function",
      "constant": true
    },
    {
      "inputs": [
        {
          "internalType": "uint256",
          "name": "tokenId",
          "type": "uint256"
        },
        {
          "internalType": "uint256",
          "name": "price",
          "type": "uint256"
        }
      ],
      "name": "createMarketItem",
      "outputs": [],
      "stateMutability": "nonpayable",
      "type": "function"
    },
    {
      "inputs": [
        {
          "internalType": "uint256",
          "name": "tokenId",
          "type": "uint256"
        }
      ],
      "name": "createMarketSale",
      "outputs": [],
      "stateMutability": "payable",
      "type": "function",
      "payable": true
    },
    {
      "inputs": [
        {
          "internalType": "uint256",
          "name": "_platformFee",
          "type": "uint256"
        }
      ],
      "name": "updatePlatformFee",
      "outputs": [],
      "stateMutability": "nonpayable",
      "type": "function"
    },
    {
      "inputs": [],
      "name": "withdrawFunds",
      "outputs": [],
      "stateMutability": "nonpayable",
      "type": "function"
    }
  ],
  "bytecode": "0x6080604052601960015534801561001557600080fd5b50604051610be0380380610be083398101604081905261003491610062565b600080546001600160a01b039092166001600160a01b03199283161790556002805490911633179055610092565b60006020828403121561007457600080fd5b81516001600160a01b038116811461008b57600080fd5b9392505050565b610b3f806100a16000396000f3fe6080604052600436106100705760003560e01c80634df8ccb11161004e5780634df8ccb1146100d5578063aa0b59881461010d578063be9af5361461012d578063d56d229d1461014057600080fd5b806324600fc31461007557806326232a2e1461008c578063361c1995146100b5575b600080fd5b34801561008157600080fd5b5061008a610160565b005b34801561009857600080fd5b506100a260015481565b6040519081526020015b60405180910390f35b3480156100c157600080fd5b5061008a6100d0366004610870565b6101fb565b3480156100e157600080fd5b506002546100f5906001600160a01b031681565b6040516001600160a01b0390911681526020016100ac565b34801561011957600080fd5b5061008a610128366004610892565b61049e565b61008a61013b366004610892565b610551565b34801561014c57600080fd5b506000546100f5906001600160a01b031681565b6002546001600160a01b031633146101bf5760405162461bcd60e51b815260206004820181905260248201527f4f6e6c7920706c6174666f726d206f776e65722063616e20776974686472617760448201526064015b60405180910390fd5b6002546040516001600160a01b03909116904780156108fc02916000818181858888f193505050501580156101f8573d6000803e3d6000fd5b50565b6000811161024b5760405162461bcd60e51b815260206004820152601c60248201527f5072696365206d7573742062652067726561746572207468616e20300000000060448201526064016101b6565b6000546040516331a9108f60e11b81526004810184905233916001600160a01b031690636352211e90602401602060405180830381865afa158015610294573d6000803e3d6000fd5b505050506040513d601f19601f820116820180604052508101906102b891906108c7565b6001600160a01b03161461030e5760405162461bcd60e51b815260206004820152601760248201527f4f6e6c79206f776e65722063616e206c697374204e465400000000000000000060448201526064016101b6565b60005460405163020604bf60e21b81526004810184905230916001600160a01b03169063081812fc90602401602060405180830381865afa158015610357573d6000803e3d6000fd5b505050506040513d601f19601f8201168201806040525081019061037b91906108c7565b6001600160a01b031614806103fd575060005460405163e985e9c560e01b81523360048201523060248201526001600160a01b039091169063e985e9c590604401602060405180830381865afa1580156103d9573d6000803e3d6000fd5b505050506040513d601f19601f820116820180604052508101906103fd91906108f9565b61045a5760405162461bcd60e51b815260206004820152602860248201527f4d61726b6574706c616365206e6f7420617070726f76656420746f207472616e6044820152671cd9995c8813919560c21b60648201526084016101b6565b604080518381523360208201529081018290527fec759846c972e2aa7c351c68392f7388dfb8511b1d2be0ee4cdfbc50011f71529060600160405180910390a15050565b6002546001600160a01b031633146105035760405162461bcd60e51b815260206004820152602260248201527f4f6e6c7920706c6174666f726d206f776e65722063616e207570646174652066604482015261656560f01b60648201526084016101b6565b606481111561054c5760405162461bcd60e51b81526020600482015260156024820152744665652063616e6e6f74206578636565642031302560581b60448201526064016101b6565b600155565b600080546040516331a9108f60e11b8152600481018490526001600160a01b0390911690636352211e90602401602060405180830381865afa15801561059b573d6000803e3d6000fd5b505050506040513d601f19601f820116820180604052508101906105bf91906108c7565b6000805460405163217261e560e21b815260048101869052929350909182916001600160a01b0316906385c9879490602401600060405180830381865afa15801561060e573d6000803e3d6000fd5b505050506040513d6000823e601f3d908101601f1916820160405261063691908101906109d7565b5095505094505050508061067f5760405162461bcd60e51b815260206004820152601060248201526f4e4654206e6f7420666f722073616c6560801b60448201526064016101b6565b813410156106cf5760405162461bcd60e51b815260206004820152601e60248201527f506c65617365207375626d6974207468652061736b696e67207072696365000060448201526064016101b6565b60006103e8600154846106e29190610ab1565b6106ec9190610ad0565b905060006106fa8285610af2565b6040519091506001600160a01b0386169082156108fc029083906000818181858888f19350505050158015610733573d6000803e3d6000fd5b506002546040516001600160a01b039091169083156108fc029084906000818181858888f1935050505015801561076e573d6000803e3d6000fd5b50600054604051632538c53360e01b8152600481018890526001600160a01b0390911690632538c5339086906024016000604051808303818588803b1580156107b657600080fd5b505af11580156107ca573d6000803e3d6000fd5b5050604080518a81526001600160a01b038a1660208201523391810191909152606081018890527f150ffca547cf855e7fcf5daa82e41c6523b5fb2c8b1309bbb6cf2f87c6ae5a31935060800191506108209050565b60405180910390a18334111561086857336108fc61083e8634610af2565b6040518115909202916000818181858888f19350505050158015610866573d6000803e3d6000fd5b505b505050505050565b6000806040838503121561088357600080fd5b50508035926020909101359150565b6000602082840312156108a457600080fd5b5035919050565b80516001600160a01b03811681146108c257600080fd5b919050565b6000602082840312156108d957600080fd5b6108e2826108ab565b9392505050565b805180151581146108c257600080fd5b60006020828403121561090b57600080fd5b6108e2826108e9565b634e487b7160e01b600052604160045260246000fd5b600082601f83011261093b57600080fd5b815167ffffffffffffffff8082111561095657610956610914565b604051601f8301601f19908116603f0116810190828211818310171561097e5761097e610914565b8160405283815260209250868385880101111561099a57600080fd5b600091505b838210156109bc578582018301518183018401529082019061099f565b838211156109cd5760008385830101525b9695505050505050565b600080600080600080600060e0888a0312156109f257600080fd5b875167ffffffffffffffff80821115610a0a57600080fd5b610a168b838c0161092a565b985060208a0151915080821115610a2c57600080fd5b610a388b838c0161092a565b975060408a0151915080821115610a4e57600080fd5b50610a5b8a828b0161092a565b95505060608801519350610a71608089016108ab565b9250610a7f60a089016108e9565b9150610a8d60c089016108ab565b905092959891949750929550565b634e487b7160e01b600052601160045260246000fd5b6000816000190483118215151615610acb57610acb610a9b565b500290565b600082610aed57634e487b7160e01b600052601260045260246000fd5b500490565b600082821015610b0457610b04610a9b565b50039056fea2646970667358221220e2250bee804f1d15fc4550855897e39e5b25d807b1f1bde267a0b0a22c0cceb364736f6c634300080d0033",
  "immutableReferences": {},
  "source": "// SPDX-License-Identifier: MIT\r\npragma solidity ^0.8.13;\r\n\r\nimport \"./MusicNFT.sol\";\r\n\r\ncontract MusicMarketplace {\r\n    MusicNFT public nftContract;\r\n    uint256 public platformFee = 25; // 2.5% fee\r\n    address payable public platformOwner;\r\n    \r\n    // Structure for marketplace items\r\n    struct MarketItem {\r\n        uint256 tokenId;\r\n        address payable seller;\r\n        uint256 price;\r\n        bool sold;\r\n    }\r\n    \r\n    // Events\r\n    event MarketItemCreated(uint256 tokenId, address seller, uint256 price);\r\n    event MarketItemSold(uint256 tokenId, address seller, address buyer, uint256 price);\r\n    \r\n    constructor(address _nftContract) {\r\n        nftContract = MusicNFT(_nftContract);\r\n        platformOwner = payable(msg.sender);\r\n    }\r\n    \r\n    // List NFT on marketplace\r\n    function createMarketItem(uint256 tokenId, uint256 price) public {\r\n        require(price > 0, \"Price must be greater than 0\");\r\n        require(nftContract.ownerOf(tokenId) == msg.sender, \"Only owner can list NFT\");\r\n        \r\n        // Ensure the contract is approved to transfer the NFT\r\n        require(nftContract.getApproved(tokenId) == address(this) || \r\n                nftContract.isApprovedForAll(msg.sender, address(this)), \r\n                \"Marketplace not approved to transfer NFT\");\r\n        \r\n        emit MarketItemCreated(tokenId, msg.sender, price);\r\n    }\r\n    \r\n    // Buy NFT from marketplace\r\n    function createMarketSale(uint256 tokenId) public payable {\r\n        address seller = nftContract.ownerOf(tokenId);\r\n        (, , , uint256 price, , bool isForSale, ) = nftContract.getMusicInfo(tokenId);\r\n        \r\n        require(isForSale, \"NFT not for sale\");\r\n        require(msg.value >= price, \"Please submit the asking price\");\r\n        \r\n        // Calculate platform fee\r\n        uint256 fee = (price * platformFee) / 1000;\r\n        uint256 sellerAmount = price - fee;\r\n        \r\n        // Pay seller\r\n        payable(seller).transfer(sellerAmount);\r\n        \r\n        // Pay platform fee\r\n        platformOwner.transfer(fee);\r\n        \r\n        // Transfer NFT to buyer\r\n        nftContract.buyMusic{value: price}(tokenId);\r\n        \r\n        emit MarketItemSold(tokenId, seller, msg.sender, price);\r\n        \r\n        // Return excess funds\r\n        if (msg.value > price) {\r\n            payable(msg.sender).transfer(msg.value - price);\r\n        }\r\n    }\r\n    \r\n    // Update platform fee - only owner can do this\r\n    function updatePlatformFee(uint256 _platformFee) public {\r\n        require(msg.sender == platformOwner, \"Only platform owner can update fee\");\r\n        require(_platformFee <= 100, \"Fee cannot exceed 10%\"); // Maximum 10%\r\n        platformFee = _platformFee;\r\n    }\r\n    \r\n    // Withdraw platform earnings - only owner can do this\r\n    function withdrawFunds() public {\r\n        require(msg.sender == platformOwner, \"Only platform owner can withdraw\");\r\n        platformOwner.transfer(address(this).balance);\r\n    }\r\n}",
  "sourcePath": "C:\\Users\\Srijan Ankapalli\\Downloads\\harmony-chain\\contracts\\MusicMarketplace.sol",
  "compiler": {
    "name": "solc",
    "version": "0.8.13+commit.abaa5c0e.Emscripten.clang"
  },
  "schemaVersion": "3.4.16",
  "updatedAt": "2025-04-03T05:34:47.483Z",
  "networkType": "ethereum",
  "devdoc": {
    "kind": "dev",
    "methods": {},
    "version": 1
  },
  "userdoc": {
    "kind": "user",
    "methods": {},
    "version": 1
  }
}