{
  "contractName": "MusicNFT",
  "abi": [
    {
      "inputs": [],
      "stateMutability": "nonpayable",
      "type": "constructor"
    },
    {
      "anonymous": false,
      "inputs": [
        {
          "indexed": true,
          "internalType": "address",
          "name": "owner",
          "type": "address"
        },
        {
          "indexed": true,
          "internalType": "address",
          "name": "approved",
          "type": "address"
        },
        {
          "indexed": true,
          "internalType": "uint256",
          "name": "tokenId",
          "type": "uint256"
        }
      ],
      "name": "Approval",
      "type": "event"
    },
    {
      "anonymous": false,
      "inputs": [
        {
          "indexed": true,
          "internalType": "address",
          "name": "owner",
          "type": "address"
        },
        {
          "indexed": true,
          "internalType": "address",
          "name": "operator",
          "type": "address"
        },
        {
          "indexed": false,
          "internalType": "bool",
          "name": "approved",
          "type": "bool"
        }
      ],
      "name": "ApprovalForAll",
      "type": "event"
    },
    {
      "anonymous": false,
      "inputs": [
        {
          "indexed": false,
          "internalType": "uint256",
          "name": "_fromTokenId",
          "type": "uint256"
        },
        {
          "indexed": false,
          "internalType": "uint256",
          "name": "_toTokenId",
          "type": "uint256"
        }
      ],
      "name": "BatchMetadataUpdate",
      "type": "event"
    },
    {
      "anonymous": false,
      "inputs": [
        {
          "indexed": false,
          "internalType": "uint256",
          "name": "_tokenId",
          "type": "uint256"
        }
      ],
      "name": "MetadataUpdate",
      "type": "event"
    },
    {
      "anonymous": false,
      "inputs": [
        {
          "indexed": false,
          "internalType": "uint256",
          "name": "tokenId",
          "type": "uint256"
        },
        {
          "indexed": false,
          "internalType": "string",
          "name": "title",
          "type": "string"
        },
        {
          "indexed": false,
          "internalType": "string",
          "name": "artist",
          "type": "string"
        },
        {
          "indexed": false,
          "internalType": "address",
          "name": "creator",
          "type": "address"
        }
      ],
      "name": "MusicMinted",
      "type": "event"
    },
    {
      "anonymous": false,
      "inputs": [
        {
          "indexed": false,
          "internalType": "uint256",
          "name": "tokenId",
          "type": "uint256"
        },
        {
          "indexed": false,
          "internalType": "uint256",
          "name": "newPrice",
          "type": "uint256"
        }
      ],
      "name": "MusicPriceChanged",
      "type": "event"
    },
    {
      "anonymous": false,
      "inputs": [
        {
          "indexed": false,
          "internalType": "uint256",
          "name": "tokenId",
          "type": "uint256"
        },
        {
          "indexed": false,
          "internalType": "address",
          "name": "from",
          "type": "address"
        },
        {
          "indexed": false,
          "internalType": "address",
          "name": "to",
          "type": "address"
        },
        {
          "indexed": false,
          "internalType": "uint256",
          "name": "price",
          "type": "uint256"
        }
      ],
      "name": "MusicSold",
      "type": "event"
    },
    {
      "anonymous": false,
      "inputs": [
        {
          "indexed": true,
          "internalType": "address",
          "name": "previousOwner",
          "type": "address"
        },
        {
          "indexed": true,
          "internalType": "address",
          "name": "newOwner",
          "type": "address"
        }
      ],
      "name": "OwnershipTransferred",
      "type": "event"
    },
    {
      "anonymous": false,
      "inputs": [
        {
          "indexed": true,
          "internalType": "address",
          "name": "from",
          "type": "address"
        },
        {
          "indexed": true,
          "internalType": "address",
          "name": "to",
          "type": "address"
        },
        {
          "indexed": true,
          "internalType": "uint256",
          "name": "tokenId",
          "type": "uint256"
        }
      ],
      "name": "Transfer",
      "type": "event"
    },
    {
      "inputs": [
        {
          "internalType": "address",
          "name": "to",
          "type": "address"
        },
        {
          "internalType": "uint256",
          "name": "tokenId",
          "type": "uint256"
        }
      ],
      "name": "approve",
      "outputs": [],
      "stateMutability": "nonpayable",
      "type": "function"
    },
    {
      "inputs": [
        {
          "internalType": "address",
          "name": "owner",
          "type": "address"
        }
      ],
      "name": "balanceOf",
      "outputs": [
        {
          "internalType": "uint256",
          "name": "",
          "type": "uint256"
        }
      ],
      "stateMutability": "view",
      "type": "function",
      "constant": true
    },
    {
      "inputs": [
        {
          "internalType": "uint256",
          "name": "tokenId",
          "type": "uint256"
        }
      ],
      "name": "getApproved",
      "outputs": [
        {
          "internalType": "address",
          "name": "",
          "type": "address"
        }
      ],
      "stateMutability": "view",
      "type": "function",
      "constant": true
    },
    {
      "inputs": [
        {
          "internalType": "address",
          "name": "owner",
          "type": "address"
        },
        {
          "internalType": "address",
          "name": "operator",
          "type": "address"
        }
      ],
      "name": "isApprovedForAll",
      "outputs": [
        {
          "internalType": "bool",
          "name": "",
          "type": "bool"
        }
      ],
      "stateMutability": "view",
      "type": "function",
      "constant": true
    },
    {
      "inputs": [
        {
          "internalType": "uint256",
          "name": "",
          "type": "uint256"
        }
      ],
      "name": "musicData",
      "outputs": [
        {
          "internalType": "string",
          "name": "title",
          "type": "string"
        },
        {
          "internalType": "string",
          "name": "artist",
          "type": "string"
        },
        {
          "internalType": "string",
          "name": "genre",
          "type": "string"
        },
        {
          "internalType": "uint256",
          "name": "price",
          "type": "uint256"
        },
        {
          "internalType": "address payable",
          "name": "creator",
          "type": "address"
        },
        {
          "internalType": "bool",
          "name": "isForSale",
          "type": "bool"
        }
      ],
      "stateMutability": "view",
      "type": "function",
      "constant": true
    },
    {
      "inputs": [],
      "name": "name",
      "outputs": [
        {
          "internalType": "string",
          "name": "",
          "type": "string"
        }
      ],
      "stateMutability": "view",
      "type": "function",
      "constant": true
    },
    {
      "inputs": [],
      "name": "owner",
      "outputs": [
        {
          "internalType": "address",
          "name": "",
          "type": "address"
        }
      ],
      "stateMutability": "view",
      "type": "function",
      "constant": true
    },
    {
      "inputs": [
        {
          "internalType": "uint256",
          "name": "tokenId",
          "type": "uint256"
        }
      ],
      "name": "ownerOf",
      "outputs": [
        {
          "internalType": "address",
          "name": "",
          "type": "address"
        }
      ],
      "stateMutability": "view",
      "type": "function",
      "constant": true
    },
    {
      "inputs": [],
      "name": "renounceOwnership",
      "outputs": [],
      "stateMutability": "nonpayable",
      "type": "function"
    },
    {
      "inputs": [
        {
          "internalType": "address",
          "name": "from",
          "type": "address"
        },
        {
          "internalType": "address",
          "name": "to",
          "type": "address"
        },
        {
          "internalType": "uint256",
          "name": "tokenId",
          "type": "uint256"
        }
      ],
      "name": "safeTransferFrom",
      "outputs": [],
      "stateMutability": "nonpayable",
      "type": "function"
    },
    {
      "inputs": [
        {
          "internalType": "address",
          "name": "from",
          "type": "address"
        },
        {
          "internalType": "address",
          "name": "to",
          "type": "address"
        },
        {
          "internalType": "uint256",
          "name": "tokenId",
          "type": "uint256"
        },
        {
          "internalType": "bytes",
          "name": "data",
          "type": "bytes"
        }
      ],
      "name": "safeTransferFrom",
      "outputs": [],
      "stateMutability": "nonpayable",
      "type": "function"
    },
    {
      "inputs": [
        {
          "internalType": "address",
          "name": "operator",
          "type": "address"
        },
        {
          "internalType": "bool",
          "name": "approved",
          "type": "bool"
        }
      ],
      "name": "setApprovalForAll",
      "outputs": [],
      "stateMutability": "nonpayable",
      "type": "function"
    },
    {
      "inputs": [
        {
          "internalType": "bytes4",
          "name": "interfaceId",
          "type": "bytes4"
        }
      ],
      "name": "supportsInterface",
      "outputs": [
        {
          "internalType": "bool",
          "name": "",
          "type": "bool"
        }
      ],
      "stateMutability": "view",
      "type": "function",
      "constant": true
    },
    {
      "inputs": [],
      "name": "symbol",
      "outputs": [
        {
          "internalType": "string",
          "name": "",
          "type": "string"
        }
      ],
      "stateMutability": "view",
      "type": "function",
      "constant": true
    },
    {
      "inputs": [
        {
          "internalType": "uint256",
          "name": "tokenId",
          "type": "uint256"
        }
      ],
      "name": "tokenURI",
      "outputs": [
        {
          "internalType": "string",
          "name": "",
          "type": "string"
        }
      ],
      "stateMutability": "view",
      "type": "function",
      "constant": true
    },
    {
      "inputs": [
        {
          "internalType": "address",
          "name": "from",
          "type": "address"
        },
        {
          "internalType": "address",
          "name": "to",
          "type": "address"
        },
        {
          "internalType": "uint256",
          "name": "tokenId",
          "type": "uint256"
        }
      ],
      "name": "transferFrom",
      "outputs": [],
      "stateMutability": "nonpayable",
      "type": "function"
    },
    {
      "inputs": [
        {
          "internalType": "address",
          "name": "newOwner",
          "type": "address"
        }
      ],
      "name": "transferOwnership",
      "outputs": [],
      "stateMutability": "nonpayable",
      "type": "function"
    },
    {
      "inputs": [
        {
          "internalType": "string",
          "name": "title",
          "type": "string"
        },
        {
          "internalType": "string",
          "name": "artist",
          "type": "string"
        },
        {
          "internalType": "string",
          "name": "genre",
          "type": "string"
        },
        {
          "internalType": "uint256",
          "name": "price",
          "type": "uint256"
        },
        {
          "internalType": "string",
          "name": "tokenURI",
          "type": "string"
        }
      ],
      "name": "mintMusic",
      "outputs": [
        {
          "internalType": "uint256",
          "name": "",
          "type": "uint256"
        }
      ],
      "stateMutability": "nonpayable",
      "type": "function"
    },
    {
      "inputs": [
        {
          "internalType": "uint256",
          "name": "tokenId",
          "type": "uint256"
        },
        {
          "internalType": "uint256",
          "name": "newPrice",
          "type": "uint256"
        }
      ],
      "name": "changePrice",
      "outputs": [],
      "stateMutability": "nonpayable",
      "type": "function"
    },
    {
      "inputs": [
        {
          "internalType": "uint256",
          "name": "tokenId",
          "type": "uint256"
        }
      ],
      "name": "toggleForSale",
      "outputs": [],
      "stateMutability": "nonpayable",
      "type": "function"
    },
    {
      "inputs": [
        {
          "internalType": "uint256",
          "name": "tokenId",
          "type": "uint256"
        }
      ],
      "name": "buyMusic",
      "outputs": [],
      "stateMutability": "payable",
      "type": "function",
      "payable": true
    },
    {
      "inputs": [],
      "name": "getTotalMusicCount",
      "outputs": [
        {
          "internalType": "uint256",
          "name": "",
          "type": "uint256"
        }
      ],
      "stateMutability": "view",
      "type": "function",
      "constant": true
    },
    {
      "inputs": [
        {
          "internalType": "uint256",
          "name": "tokenId",
          "type": "uint256"
        }
      ],
      "name": "getMusicInfo",
      "outputs": [
        {
          "internalType": "string",
          "name": "title",
          "type": "string"
        },
        {
          "internalType": "string",
          "name": "artist",
          "type": "string"
        },
        {
          "internalType": "string",
          "name": "genre",
          "type": "string"
        },
        {
          "internalType": "uint256",
          "name": "price",
          "type": "uint256"
        },
        {
          "internalType": "address",
          "name": "creator",
          "type": "address"
        },
        {
          "internalType": "bool",
          "name": "isForSale",
          "type": "bool"
        },
        {
          "internalType": "address",
          "name": "currentOwner",
          "type": "address"
        }
      ],
      "stateMutability": "view",
      "type": "function",
      "constant": true
    }
  ],
  "bytecode": "0x60806040523480156200001157600080fd5b50604080518082018252600c81526b2430b936b7b73ca1b430b4b760a11b6020808301918252835180850190945260058452641210d3919560da1b9084015281519192916200006391600091620000f2565b50805162000079906001906020840190620000f2565b50505062000096620000906200009c60201b60201c565b620000a0565b620001d4565b3390565b600780546001600160a01b038381166001600160a01b0319831681179093556040519116919082907f8be0079c531659141344cd1fd0a4f28419497f9722a3daafe3b4186f6b6457e090600090a35050565b828054620001009062000198565b90600052602060002090601f0160209004810192826200012457600085556200016f565b82601f106200013f57805160ff19168380011785556200016f565b828001600101855582156200016f579182015b828111156200016f57825182559160200191906001019062000152565b506200017d92915062000181565b5090565b5b808211156200017d576000815560010162000182565b600181811c90821680620001ad57607f821691505b602082108103620001ce57634e487b7160e01b600052602260045260246000fd5b50919050565b61245a80620001e46000396000f3fe6080604052600436106101405760003560e01c806370a08231116100b6578063a32018b91161006f578063a32018b914610399578063b3de019c146103b9578063b88d4fde146103d9578063c87b56dd146103f9578063e985e9c514610419578063f2fde38b1461046257600080fd5b806370a08231146102de578063715018a6146102fe57806385c98794146103135780638da5cb5b1461034657806395d89b4114610364578063a22cb4651461037957600080fd5b80632538c533116101085780632538c5331461021657806339fe5c4c1461022957806342842e0e1461025b5780634609de4d1461027b5780636352211e146102a957806366997f82146102c957600080fd5b806301ffc9a71461014557806306fdde031461017a578063081812fc1461019c578063095ea7b3146101d457806323b872dd146101f6575b600080fd5b34801561015157600080fd5b50610165610160366004611d60565b610482565b60405190151581526020015b60405180910390f35b34801561018657600080fd5b5061018f6104ad565b6040516101719190611dd5565b3480156101a857600080fd5b506101bc6101b7366004611de8565b61053f565b6040516001600160a01b039091168152602001610171565b3480156101e057600080fd5b506101f46101ef366004611e1d565b610566565b005b34801561020257600080fd5b506101f4610211366004611e47565b610680565b6101f4610224366004611de8565b6106b1565b34801561023557600080fd5b50610249610244366004611de8565b6108c1565b60405161017196959493929190611e83565b34801561026757600080fd5b506101f4610276366004611e47565b610a9c565b34801561028757600080fd5b5061029b610296366004611f92565b610ab7565b604051908152602001610171565b3480156102b557600080fd5b506101bc6102c4366004611de8565b610bfc565b3480156102d557600080fd5b5061029b610c5c565b3480156102ea57600080fd5b5061029b6102f9366004612049565b610c6c565b34801561030a57600080fd5b506101f4610cf2565b34801561031f57600080fd5b5061033361032e366004611de8565b610d06565b6040516101719796959493929190612064565b34801561035257600080fd5b506007546001600160a01b03166101bc565b34801561037057600080fd5b5061018f610f7e565b34801561038557600080fd5b506101f46103943660046120cf565b610f8d565b3480156103a557600080fd5b506101f46103b4366004611de8565b610f9c565b3480156103c557600080fd5b506101f46103d436600461210b565b61105b565b3480156103e557600080fd5b506101f46103f436600461212d565b611133565b34801561040557600080fd5b5061018f610414366004611de8565b611165565b34801561042557600080fd5b506101656104343660046121a9565b6001600160a01b03918216600090815260056020908152604080832093909416825291909152205460ff1690565b34801561046e57600080fd5b506101f461047d366004612049565b611275565b60006001600160e01b03198216632483248360e11b14806104a757506104a7826112ee565b92915050565b6060600080546104bc906121dc565b80601f01602080910402602001604051908101604052809291908181526020018280546104e8906121dc565b80156105355780601f1061050a57610100808354040283529160200191610535565b820191906000526020600020905b81548152906001019060200180831161051857829003601f168201915b5050505050905090565b600061054a8261133e565b506000908152600460205260409020546001600160a01b031690565b600061057182610bfc565b9050806001600160a01b0316836001600160a01b0316036105e35760405162461bcd60e51b815260206004820152602160248201527f4552433732313a20617070726f76616c20746f2063757272656e74206f776e656044820152603960f91b60648201526084015b60405180910390fd5b336001600160a01b03821614806105ff57506105ff8133610434565b6106715760405162461bcd60e51b815260206004820152603d60248201527f4552433732313a20617070726f76652063616c6c6572206973206e6f7420746f60448201527f6b656e206f776e6572206f7220617070726f76656420666f7220616c6c00000060648201526084016105da565b61067b838361138e565b505050565b61068a33826113fc565b6106a65760405162461bcd60e51b81526004016105da90612216565b61067b83838361147a565b6106ba816115de565b6106d65760405162461bcd60e51b81526004016105da90612263565b600081815260096020526040902060040154600160a01b900460ff1661073e5760405162461bcd60e51b815260206004820152601960248201527f4d75736963204e4654206973206e6f7420666f722073616c650000000000000060448201526064016105da565b6000818152600960205260409020600301543410156107945760405162461bcd60e51b8152602060048201526012602482015271496e73756666696369656e742066756e647360701b60448201526064016105da565b600061079f82610bfc565b60008381526009602052604090206003015490915033906107c183838661147a565b6040516001600160a01b0384169082156108fc029083906000818181858888f193505050501580156107f7573d6000803e3d6000fd5b5060008481526009602052604090819020600401805460ff60a01b19169055517f130aa5c6fd6434b9335b079cd2d20cf18b18db7ea85731270b11ca87d193b4ee9061086a9086908690869086909384526001600160a01b03928316602085015291166040830152606082015260800190565b60405180910390a1803411156108bb576001600160a01b0382166108fc610891833461229a565b6040518115909202916000818181858888f193505050501580156108b9573d6000803e3d6000fd5b505b50505050565b6009602052600090815260409020805481906108dc906121dc565b80601f0160208091040260200160405190810160405280929190818152602001828054610908906121dc565b80156109555780601f1061092a57610100808354040283529160200191610955565b820191906000526020600020905b81548152906001019060200180831161093857829003601f168201915b50505050509080600101805461096a906121dc565b80601f0160208091040260200160405190810160405280929190818152602001828054610996906121dc565b80156109e35780601f106109b8576101008083540402835291602001916109e3565b820191906000526020600020905b8154815290600101906020018083116109c657829003601f168201915b5050505050908060020180546109f8906121dc565b80601f0160208091040260200160405190810160405280929190818152602001828054610a24906121dc565b8015610a715780601f10610a4657610100808354040283529160200191610a71565b820191906000526020600020905b815481529060010190602001808311610a5457829003601f168201915b5050505060038301546004909301549192916001600160a01b0381169150600160a01b900460ff1686565b61067b83838360405180602001604052806000815250611133565b6000610ac7600880546001019055565b6000610ad260085490565b9050610ade33826115fb565b610ae88184611768565b6040805160c081018252888152602080820189905281830188905260608201879052336080830152600160a0830152600084815260098252929092208151805192939192610b399284920190611cb1565b506020828101518051610b529260018501920190611cb1565b5060408201518051610b6e916002840191602090910190611cb1565b506060820151600382015560808201516004909101805460a0909301511515600160a01b026001600160a81b03199093166001600160a01b03909216919091179190911790556040517f8a911f8b1b84c3150e4b11484cb5a9dadd3438e2b1a9fe3ab4930e70ea9111ce90610bea9083908a908a9033906122bf565b60405180910390a19695505050505050565b6000818152600260205260408120546001600160a01b0316806104a75760405162461bcd60e51b8152602060048201526018602482015277115490cdcc8c4e881a5b9d985b1a59081d1bdad95b88125160421b60448201526064016105da565b6000610c6760085490565b905090565b60006001600160a01b038216610cd65760405162461bcd60e51b815260206004820152602960248201527f4552433732313a2061646472657373207a65726f206973206e6f7420612076616044820152683634b21037bbb732b960b91b60648201526084016105da565b506001600160a01b031660009081526003602052604090205490565b610cfa611824565b610d04600061187e565b565b6060806060600080600080610d1a886115de565b610d365760405162461bcd60e51b81526004016105da90612263565b600088815260096020526040808220815160c08101909252805482908290610d5d906121dc565b80601f0160208091040260200160405190810160405280929190818152602001828054610d89906121dc565b8015610dd65780601f10610dab57610100808354040283529160200191610dd6565b820191906000526020600020905b815481529060010190602001808311610db957829003601f168201915b50505050508152602001600182018054610def906121dc565b80601f0160208091040260200160405190810160405280929190818152602001828054610e1b906121dc565b8015610e685780601f10610e3d57610100808354040283529160200191610e68565b820191906000526020600020905b815481529060010190602001808311610e4b57829003601f168201915b50505050508152602001600282018054610e81906121dc565b80601f0160208091040260200160405190810160405280929190818152602001828054610ead906121dc565b8015610efa5780601f10610ecf57610100808354040283529160200191610efa565b820191906000526020600020905b815481529060010190602001808311610edd57829003601f168201915b505050918352505060038201546020808301919091526004909201546001600160a01b038116604080840191909152600160a01b90910460ff1615156060928301528351928401519084015191840151608085015160a0860151959650939491939091610f668f610bfc565b959f949e50929c50909a509850965090945092505050565b6060600180546104bc906121dc565b610f983383836118d0565b5050565b610fa5816115de565b610fc15760405162461bcd60e51b81526004016105da90612263565b33610fcb82610bfc565b6001600160a01b03161461102b5760405162461bcd60e51b815260206004820152602160248201527f4f6e6c79206f776e65722063616e20746f67676c652073616c652073746174756044820152607360f81b60648201526084016105da565b6000908152600960205260409020600401805460ff60a01b198116600160a01b9182900460ff1615909102179055565b611064826115de565b6110805760405162461bcd60e51b81526004016105da90612263565b3361108a83610bfc565b6001600160a01b0316146110e05760405162461bcd60e51b815260206004820152601b60248201527f4f6e6c79206f776e65722063616e206368616e6765207072696365000000000060448201526064016105da565b60008281526009602090815260409182902060030183905581518481529081018390527f5ade28b8c1c7b3588c66a45664b673202ddcc5ed98d76ab50d22011fd49e70b691015b60405180910390a15050565b61113d33836113fc565b6111595760405162461bcd60e51b81526004016105da90612216565b6108bb8484848461199e565b60606111708261133e565b60008281526006602052604081208054611189906121dc565b80601f01602080910402602001604051908101604052809291908181526020018280546111b5906121dc565b80156112025780601f106111d757610100808354040283529160200191611202565b820191906000526020600020905b8154815290600101906020018083116111e557829003601f168201915b50505050509050600061122060408051602081019091526000815290565b90508051600003611232575092915050565b81511561126457808260405160200161124c929190612304565b60405160208183030381529060405292505050919050565b61126d846119d1565b949350505050565b61127d611824565b6001600160a01b0381166112e25760405162461bcd60e51b815260206004820152602660248201527f4f776e61626c653a206e6577206f776e657220697320746865207a65726f206160448201526564647265737360d01b60648201526084016105da565b6112eb8161187e565b50565b60006001600160e01b031982166380ac58cd60e01b148061131f57506001600160e01b03198216635b5e139f60e01b145b806104a757506301ffc9a760e01b6001600160e01b03198316146104a7565b611347816115de565b6112eb5760405162461bcd60e51b8152602060048201526018602482015277115490cdcc8c4e881a5b9d985b1a59081d1bdad95b88125160421b60448201526064016105da565b600081815260046020526040902080546001600160a01b0319166001600160a01b03841690811790915581906113c382610bfc565b6001600160a01b03167f8c5be1e5ebec7d5bd14f71427d1e84f3dd0314c0f7b2291e5b200ac8c7c3b92560405160405180910390a45050565b60008061140883610bfc565b9050806001600160a01b0316846001600160a01b0316148061144f57506001600160a01b0380821660009081526005602090815260408083209388168352929052205460ff165b8061126d5750836001600160a01b03166114688461053f565b6001600160a01b031614949350505050565b826001600160a01b031661148d82610bfc565b6001600160a01b0316146114b35760405162461bcd60e51b81526004016105da90612333565b6001600160a01b0382166115155760405162461bcd60e51b8152602060048201526024808201527f4552433732313a207472616e7366657220746f20746865207a65726f206164646044820152637265737360e01b60648201526084016105da565b826001600160a01b031661152882610bfc565b6001600160a01b03161461154e5760405162461bcd60e51b81526004016105da90612333565b600081815260046020908152604080832080546001600160a01b03199081169091556001600160a01b0387811680865260038552838620805460001901905590871680865283862080546001019055868652600290945282852080549092168417909155905184937fddf252ad1be2c89b69c2b068fc378daa952ba7f163c4a11628f55a4df523b3ef91a4505050565b6000908152600260205260409020546001600160a01b0316151590565b6001600160a01b0382166116515760405162461bcd60e51b815260206004820181905260248201527f4552433732313a206d696e7420746f20746865207a65726f206164647265737360448201526064016105da565b61165a816115de565b156116a75760405162461bcd60e51b815260206004820152601c60248201527f4552433732313a20746f6b656e20616c7265616479206d696e7465640000000060448201526064016105da565b6116b0816115de565b156116fd5760405162461bcd60e51b815260206004820152601c60248201527f4552433732313a20746f6b656e20616c7265616479206d696e7465640000000060448201526064016105da565b6001600160a01b038216600081815260036020908152604080832080546001019055848352600290915280822080546001600160a01b0319168417905551839291907fddf252ad1be2c89b69c2b068fc378daa952ba7f163c4a11628f55a4df523b3ef908290a45050565b611771826115de565b6117d45760405162461bcd60e51b815260206004820152602e60248201527f45524337323155524953746f726167653a2055524920736574206f66206e6f6e60448201526d32bc34b9ba32b73a103a37b5b2b760911b60648201526084016105da565b600082815260066020908152604090912082516117f392840190611cb1565b506040518281527ff8e1a15aba9398e019f0b49df1a4fde98ee17ae345cb5f6b5e2c27f5033e8ce790602001611127565b6007546001600160a01b03163314610d045760405162461bcd60e51b815260206004820181905260248201527f4f776e61626c653a2063616c6c6572206973206e6f7420746865206f776e657260448201526064016105da565b600780546001600160a01b038381166001600160a01b0319831681179093556040519116919082907f8be0079c531659141344cd1fd0a4f28419497f9722a3daafe3b4186f6b6457e090600090a35050565b816001600160a01b0316836001600160a01b0316036119315760405162461bcd60e51b815260206004820152601960248201527f4552433732313a20617070726f766520746f2063616c6c65720000000000000060448201526064016105da565b6001600160a01b03838116600081815260056020908152604080832094871680845294825291829020805460ff191686151590811790915591519182527f17307eab39ab6107e8899845ad3d59bd9653f200f220920489ca2b5937696c31910160405180910390a3505050565b6119a984848461147a565b6119b584848484611a45565b6108bb5760405162461bcd60e51b81526004016105da90612378565b60606119dc8261133e565b60006119f360408051602081019091526000815290565b90506000815111611a135760405180602001604052806000815250611a3e565b80611a1d84611b46565b604051602001611a2e929190612304565b6040516020818303038152906040525b9392505050565b60006001600160a01b0384163b15611b3b57604051630a85bd0160e11b81526001600160a01b0385169063150b7a0290611a899033908990889088906004016123ca565b6020604051808303816000875af1925050508015611ac4575060408051601f3d908101601f19168201909252611ac191810190612407565b60015b611b21573d808015611af2576040519150601f19603f3d011682016040523d82523d6000602084013e611af7565b606091505b508051600003611b195760405162461bcd60e51b81526004016105da90612378565b805181602001fd5b6001600160e01b031916630a85bd0160e11b14905061126d565b506001949350505050565b60606000611b5383611bd9565b600101905060008167ffffffffffffffff811115611b7357611b73611ee6565b6040519080825280601f01601f191660200182016040528015611b9d576020820181803683370190505b5090508181016020015b600019016f181899199a1a9b1b9c1cb0b131b232b360811b600a86061a8153600a8504945084611ba757509392505050565b60008072184f03e93ff9f4daa797ed6e38ed64bf6a1f0160401b8310611c185772184f03e93ff9f4daa797ed6e38ed64bf6a1f0160401b830492506040015b6d04ee2d6d415b85acef81000000008310611c44576d04ee2d6d415b85acef8100000000830492506020015b662386f26fc100008310611c6257662386f26fc10000830492506010015b6305f5e1008310611c7a576305f5e100830492506008015b6127108310611c8e57612710830492506004015b60648310611ca0576064830492506002015b600a83106104a75760010192915050565b828054611cbd906121dc565b90600052602060002090601f016020900481019282611cdf5760008555611d25565b82601f10611cf857805160ff1916838001178555611d25565b82800160010185558215611d25579182015b82811115611d25578251825591602001919060010190611d0a565b50611d31929150611d35565b5090565b5b80821115611d315760008155600101611d36565b6001600160e01b0319811681146112eb57600080fd5b600060208284031215611d7257600080fd5b8135611a3e81611d4a565b60005b83811015611d98578181015183820152602001611d80565b838111156108bb5750506000910152565b60008151808452611dc1816020860160208601611d7d565b601f01601f19169290920160200192915050565b602081526000611a3e6020830184611da9565b600060208284031215611dfa57600080fd5b5035919050565b80356001600160a01b0381168114611e1857600080fd5b919050565b60008060408385031215611e3057600080fd5b611e3983611e01565b946020939093013593505050565b600080600060608486031215611e5c57600080fd5b611e6584611e01565b9250611e7360208501611e01565b9150604084013590509250925092565b60c081526000611e9660c0830189611da9565b8281036020840152611ea88189611da9565b90508281036040840152611ebc8188611da9565b606084019690965250506001600160a01b03929092166080830152151560a0909101529392505050565b634e487b7160e01b600052604160045260246000fd5b600067ffffffffffffffff80841115611f1757611f17611ee6565b604051601f8501601f19908116603f01168101908282118183101715611f3f57611f3f611ee6565b81604052809350858152868686011115611f5857600080fd5b858560208301376000602087830101525050509392505050565b600082601f830112611f8357600080fd5b611a3e83833560208501611efc565b600080600080600060a08688031215611faa57600080fd5b853567ffffffffffffffff80821115611fc257600080fd5b611fce89838a01611f72565b96506020880135915080821115611fe457600080fd5b611ff089838a01611f72565b9550604088013591508082111561200657600080fd5b61201289838a01611f72565b945060608801359350608088013591508082111561202f57600080fd5b5061203c88828901611f72565b9150509295509295909350565b60006020828403121561205b57600080fd5b611a3e82611e01565b60e08152600061207760e083018a611da9565b8281036020840152612089818a611da9565b9050828103604084015261209d8189611da9565b606084019790975250506001600160a01b03938416608082015291151560a083015290911660c0909101529392505050565b600080604083850312156120e257600080fd5b6120eb83611e01565b91506020830135801515811461210057600080fd5b809150509250929050565b6000806040838503121561211e57600080fd5b50508035926020909101359150565b6000806000806080858703121561214357600080fd5b61214c85611e01565b935061215a60208601611e01565b925060408501359150606085013567ffffffffffffffff81111561217d57600080fd5b8501601f8101871361218e57600080fd5b61219d87823560208401611efc565b91505092959194509250565b600080604083850312156121bc57600080fd5b6121c583611e01565b91506121d360208401611e01565b90509250929050565b600181811c908216806121f057607f821691505b60208210810361221057634e487b7160e01b600052602260045260246000fd5b50919050565b6020808252602d908201527f4552433732313a2063616c6c6572206973206e6f7420746f6b656e206f776e6560408201526c1c881bdc88185c1c1c9bdd9959609a1b606082015260800190565b60208082526018908201527f4d75736963204e465420646f6573206e6f742065786973740000000000000000604082015260600190565b6000828210156122ba57634e487b7160e01b600052601160045260246000fd5b500390565b8481526080602082015260006122d86080830186611da9565b82810360408401526122ea8186611da9565b91505060018060a01b038316606083015295945050505050565b60008351612316818460208801611d7d565b83519083019061232a818360208801611d7d565b01949350505050565b60208082526025908201527f4552433732313a207472616e736665722066726f6d20696e636f72726563742060408201526437bbb732b960d91b606082015260800190565b60208082526032908201527f4552433732313a207472616e7366657220746f206e6f6e20455243373231526560408201527131b2b4bb32b91034b6b83632b6b2b73a32b960711b606082015260800190565b6001600160a01b03858116825284166020820152604081018390526080606082018190526000906123fd90830184611da9565b9695505050505050565b60006020828403121561241957600080fd5b8151611a3e81611d4a56fea2646970667358221220750b48b6d72cc249f4a0b3b91c8ab297676de04561a9f3194fbf2e7c82ab42ee64736f6c634300080d0033",
  "immutableReferences": {},
  "source": "// SPDX-License-Identifier: MIT\r\npragma solidity ^0.8.13;\r\n\r\nimport \"@openzeppelin/contracts/token/ERC721/extensions/ERC721URIStorage.sol\";\r\nimport \"@openzeppelin/contracts/utils/Counters.sol\";\r\nimport \"@openzeppelin/contracts/access/Ownable.sol\";\r\n\r\ncontract MusicNFT is ERC721URIStorage, Ownable {\r\n    using Counters for Counters.Counter;\r\n    Counters.Counter private _tokenIds;\r\n    \r\n    // Structure to store music metadata\r\n    struct Music {\r\n        string title;\r\n        string artist;\r\n        string genre;\r\n        uint256 price;\r\n        address payable creator;\r\n        bool isForSale;\r\n    }\r\n    \r\n    // Mapping from token ID to Music\r\n    mapping(uint256 => Music) public musicData;\r\n    \r\n    // Events\r\n    event MusicMinted(uint256 tokenId, string title, string artist, address creator);\r\n    event MusicPriceChanged(uint256 tokenId, uint256 newPrice);\r\n    event MusicSold(uint256 tokenId, address from, address to, uint256 price);\r\n    \r\n    constructor() ERC721(\"HarmonyChain\", \"HCNFT\") {}\r\n    \r\n    // Mint new music NFT\r\n    function mintMusic(\r\n        string memory title,\r\n        string memory artist,\r\n        string memory genre,\r\n        uint256 price,\r\n        string memory tokenURI\r\n    ) public returns (uint256) {\r\n        _tokenIds.increment();\r\n        \r\n        uint256 newTokenId = _tokenIds.current();\r\n        _mint(msg.sender, newTokenId);\r\n        _setTokenURI(newTokenId, tokenURI);\r\n        \r\n        musicData[newTokenId] = Music({\r\n            title: title,\r\n            artist: artist,\r\n            genre: genre,\r\n            price: price,\r\n            creator: payable(msg.sender),\r\n            isForSale: true\r\n        });\r\n        \r\n        emit MusicMinted(newTokenId, title, artist, msg.sender);\r\n        \r\n        return newTokenId;\r\n    }\r\n    \r\n    // Change music price\r\n    function changePrice(uint256 tokenId, uint256 newPrice) public {\r\n        require(_exists(tokenId), \"Music NFT does not exist\");\r\n        require(ownerOf(tokenId) == msg.sender, \"Only owner can change price\");\r\n        \r\n        musicData[tokenId].price = newPrice;\r\n        emit MusicPriceChanged(tokenId, newPrice);\r\n    }\r\n    \r\n    // Toggle sale status\r\n    function toggleForSale(uint256 tokenId) public {\r\n        require(_exists(tokenId), \"Music NFT does not exist\");\r\n        require(ownerOf(tokenId) == msg.sender, \"Only owner can toggle sale status\");\r\n        \r\n        musicData[tokenId].isForSale = !musicData[tokenId].isForSale;\r\n    }\r\n    \r\n    // Buy music NFT\r\n    function buyMusic(uint256 tokenId) public payable {\r\n        require(_exists(tokenId), \"Music NFT does not exist\");\r\n        require(musicData[tokenId].isForSale, \"Music NFT is not for sale\");\r\n        require(msg.value >= musicData[tokenId].price, \"Insufficient funds\");\r\n        \r\n        address seller = ownerOf(tokenId);\r\n        address buyer = msg.sender;\r\n        uint256 price = musicData[tokenId].price;\r\n        \r\n        // Transfer ownership\r\n        _transfer(seller, buyer, tokenId);\r\n        \r\n        // Pay the seller\r\n        payable(seller).transfer(price);\r\n        \r\n        // Set status to not for sale after purchase\r\n        musicData[tokenId].isForSale = false;\r\n        \r\n        emit MusicSold(tokenId, seller, buyer, price);\r\n        \r\n        // Return excess funds\r\n        if (msg.value > price) {\r\n            payable(buyer).transfer(msg.value - price);\r\n        }\r\n    }\r\n    \r\n    // Get total supply of NFTs\r\n    function getTotalMusicCount() public view returns (uint256) {\r\n        return _tokenIds.current();\r\n    }\r\n    \r\n    // Get music information\r\n    function getMusicInfo(uint256 tokenId) public view returns (\r\n        string memory title,\r\n        string memory artist,\r\n        string memory genre,\r\n        uint256 price,\r\n        address creator,\r\n        bool isForSale,\r\n        address currentOwner\r\n    ) {\r\n        require(_exists(tokenId), \"Music NFT does not exist\");\r\n        \r\n        Music memory music = musicData[tokenId];\r\n        \r\n        return (\r\n            music.title,\r\n            music.artist,\r\n            music.genre,\r\n            music.price,\r\n            music.creator,\r\n            music.isForSale,\r\n            ownerOf(tokenId)\r\n        );\r\n    }\r\n}",
  "sourcePath": "C:\\Users\\Srijan Ankapalli\\Downloads\\harmony-chain\\contracts\\MusicNFT.sol",
  "compiler": {
    "name": "solc",
    "version": "0.8.13+commit.abaa5c0e.Emscripten.clang"
  },
  "schemaVersion": "3.4.16",
  "updatedAt": "2025-04-03T05:34:47.474Z",
  "networkType": "ethereum",
  "devdoc": {
    "kind": "dev",
    "methods": {
      "approve(address,uint256)": {
        "details": "See {IERC721-approve}."
      },
      "balanceOf(address)": {
        "details": "See {IERC721-balanceOf}."
      },
      "getApproved(uint256)": {
        "details": "See {IERC721-getApproved}."
      },
      "isApprovedForAll(address,address)": {
        "details": "See {IERC721-isApprovedForAll}."
      },
      "name()": {
        "details": "See {IERC721Metadata-name}."
      },
      "owner()": {
        "details": "Returns the address of the current owner."
      },
      "ownerOf(uint256)": {
        "details": "See {IERC721-ownerOf}."
      },
      "renounceOwnership()": {
        "details": "Leaves the contract without owner. It will not be possible to call `onlyOwner` functions. Can only be called by the current owner. NOTE: Renouncing ownership will leave the contract without an owner, thereby disabling any functionality that is only available to the owner."
      },
      "safeTransferFrom(address,address,uint256)": {
        "details": "See {IERC721-safeTransferFrom}."
      },
      "safeTransferFrom(address,address,uint256,bytes)": {
        "details": "See {IERC721-safeTransferFrom}."
      },
      "setApprovalForAll(address,bool)": {
        "details": "See {IERC721-setApprovalForAll}."
      },
      "supportsInterface(bytes4)": {
        "details": "See {IERC165-supportsInterface}"
      },
      "symbol()": {
        "details": "See {IERC721Metadata-symbol}."
      },
      "tokenURI(uint256)": {
        "details": "See {IERC721Metadata-tokenURI}."
      },
      "transferFrom(address,address,uint256)": {
        "details": "See {IERC721-transferFrom}."
      },
      "transferOwnership(address)": {
        "details": "Transfers ownership of the contract to a new account (`newOwner`). Can only be called by the current owner."
      }
    },
    "version": 1
  },
  "userdoc": {
    "kind": "user",
    "methods": {},
    "version": 1
  }
}