{
  "contractName": "MusicMarketplace",
  "abi": [
    {
      "inputs": [
        {
          "internalType": "address",
          "name": "_nftContract",
          "type": "address"
        }
      ],
      "stateMutability": "nonpayable",
      "type": "constructor"
    },
    {
      "anonymous": false,
      "inputs": [
        {
          "indexed": false,
          "internalType": "uint256",
          "name": "tokenId",
          "type": "uint256"
        },
        {
          "indexed": false,
          "internalType": "address",
          "name": "seller",
          "type": "address"
        },
        {
          "indexed": false,
          "internalType": "address",
          "name": "buyer",
          "type": "address"
        },
        {
          "indexed": false,
          "internalType": "uint256",
          "name": "price",
          "type": "uint256"
        }
      ],
      "name": "MarketItemSold",
      "type": "event"
    },
    {
      "inputs": [],
      "name": "nftContract",
      "outputs": [
        {
          "internalType": "contract MusicNFT",
          "name": "",
          "type": "address"
        }
      ],
      "stateMutability": "view",
      "type": "function",
      "constant": true
    },
    {
      "inputs": [],
      "name": "platformFee",
      "outputs": [
        {
          "internalType": "uint256",
          "name": "",
          "type": "uint256"
        }
      ],
      "stateMutability": "view",
      "type": "function",
      "constant": true
    },
    {
      "inputs": [],
      "name": "platformOwner",
      "outputs": [
        {
          "internalType": "address payable",
          "name": "",
          "type": "address"
        }
      ],
      "stateMutability": "view",
      "type": "function",
      "constant": true
    },
    {
      "inputs": [],
      "name": "royaltyFee",
      "outputs": [
        {
          "internalType": "uint256",
          "name": "",
          "type": "uint256"
        }
      ],
      "stateMutability": "view",
      "type": "function",
      "constant": true
    },
    {
      "inputs": [
        {
          "internalType": "uint256",
          "name": "tokenId",
          "type": "uint256"
        }
      ],
      "name": "createMarketSale",
      "outputs": [],
      "stateMutability": "payable",
      "type": "function",
      "payable": true
    }
  ],
  "bytecode": "0x60806040526019600155601960025534801561001a57600080fd5b5060405161088938038061088983398101604081905261003991610067565b600080546001600160a01b039092166001600160a01b03199283161790556003805490911633179055610097565b60006020828403121561007957600080fd5b81516001600160a01b038116811461009057600080fd5b9392505050565b6107e3806100a66000396000f3fe60806040526004361061004a5760003560e01c806326232a2e1461004f5780634df8ccb114610078578063b8997a97146100b0578063be9af536146100c6578063d56d229d146100db575b600080fd5b34801561005b57600080fd5b5061006560015481565b6040519081526020015b60405180910390f35b34801561008457600080fd5b50600354610098906001600160a01b031681565b6040516001600160a01b03909116815260200161006f565b3480156100bc57600080fd5b5061006560025481565b6100d96100d436600461048e565b6100fb565b005b3480156100e757600080fd5b50600054610098906001600160a01b031681565b600080546040516331a9108f60e11b8152600481018490526001600160a01b0390911690636352211e90602401602060405180830381865afa158015610145573d6000803e3d6000fd5b505050506040513d601f19601f8201168201806040525081019061016991906104cf565b6000805460405163217261e560e21b81526004810186905292935090916001600160a01b03909116906385c9879490602401600060405180830381865afa1580156101b8573d6000803e3d6000fd5b505050506040513d6000823e601f3d908101601f191682016040526101e09190810190610600565b6060810151608082015160c08301519293509091806102395760405162461bcd60e51b815260206004820152601060248201526f4e4654206e6f7420666f722073616c6560801b60448201526064015b60405180910390fd5b823410156102895760405162461bcd60e51b815260206004820152601e60248201527f506c65617365207375626d6974207468652061736b696e6720707269636500006044820152606401610230565b60006103e86001548561029c9190610755565b6102a69190610774565b905060006103e8600254866102bb9190610755565b6102c59190610774565b90506000816102d48488610796565b6102de9190610796565b600054604051632142170760e11b81526001600160a01b038b81166004830152336024830152604482018d90529293509116906342842e0e90606401600060405180830381600087803b15801561033457600080fd5b505af1158015610348573d6000803e3d6000fd5b50506040516001600160a01b038b16925083156108fc02915083906000818181858888f19350505050158015610382573d6000803e3d6000fd5b506040516001600160a01b0386169083156108fc029084906000818181858888f193505050501580156103b9573d6000803e3d6000fd5b506003546040516001600160a01b039091169084156108fc029085906000818181858888f193505050501580156103f4573d6000803e3d6000fd5b50604080518a81526001600160a01b038a16602082015233818301526060810188905290517f150ffca547cf855e7fcf5daa82e41c6523b5fb2c8b1309bbb6cf2f87c6ae5a319181900360800190a18534111561048357336108fc6104598834610796565b6040518115909202916000818181858888f19350505050158015610481573d6000803e3d6000fd5b505b505050505050505050565b6000602082840312156104a057600080fd5b5035919050565b6001600160a01b03811681146104bc57600080fd5b50565b80516104ca816104a7565b919050565b6000602082840312156104e157600080fd5b81516104ec816104a7565b9392505050565b634e487b7160e01b600052604160045260246000fd5b604051610120810167ffffffffffffffff8111828210171561052d5761052d6104f3565b60405290565b604051601f8201601f1916810167ffffffffffffffff8111828210171561055c5761055c6104f3565b604052919050565b600082601f83011261057557600080fd5b815167ffffffffffffffff81111561058f5761058f6104f3565b60206105a3601f8301601f19168201610533565b82815285828487010111156105b757600080fd5b60005b838110156105d55785810183015182820184015282016105ba565b838111156105e65760008385840101525b5095945050505050565b805180151581146104ca57600080fd5b60006020828403121561061257600080fd5b815167ffffffffffffffff8082111561062a57600080fd5b90830190610120828603121561063f57600080fd5b610647610509565b82518281111561065657600080fd5b61066287828601610564565b82525060208301518281111561067757600080fd5b61068387828601610564565b60208301525060408301518281111561069b57600080fd5b6106a787828601610564565b604083015250606083015160608201526106c3608084016104bf565b60808201526106d460a084016104bf565b60a08201526106e560c084016105f0565b60c082015260e0830151828111156106fc57600080fd5b61070887828601610564565b60e083015250610100808401518381111561072257600080fd5b61072e88828701610564565b918301919091525095945050505050565b634e487b7160e01b600052601160045260246000fd5b600081600019048311821515161561076f5761076f61073f565b500290565b60008261079157634e487b7160e01b600052601260045260246000fd5b500490565b6000828210156107a8576107a861073f565b50039056fea2646970667358221220f82c3f77b1f7e2521d1b4976d4957818630d724572a06004e9bba03567a4387a64736f6c634300080d0033",
  "immutableReferences": {},
  "source": "// SPDX-License-Identifier: MIT\r\npragma solidity ^0.8.13;\r\n\r\nimport \"./MusicNFT.sol\";\r\n\r\ncontract MusicMarketplace {\r\n    MusicNFT public nftContract;\r\n    uint256 public platformFee = 25;\r\n    uint256 public royaltyFee = 25;\r\n    address payable public platformOwner;\r\n    \r\n    event MarketItemSold(uint256 tokenId, address seller, address buyer, uint256 price);\r\n    \r\n    constructor(address _nftContract) {\r\n        nftContract = MusicNFT(_nftContract);\r\n        platformOwner = payable(msg.sender);\r\n    }\r\n    \r\n   \r\n    function createMarketSale(uint256 tokenId) public payable {\r\n        address seller = nftContract.ownerOf(tokenId);\r\n        MusicNFT.ViewMusic memory info = nftContract.getMusicInfo(tokenId);\r\n        uint256 price = info.price;\r\n        address payable creator = payable(info.creator); \r\n        bool isForSale = info.isForSale;\r\n\r\n        \r\n        require(isForSale, \"NFT not for sale\");\r\n        require(msg.value >= price, \"Please submit the asking price\");\r\n        \r\n        \r\n        uint256 fee = (price * platformFee) / 1000;\r\n        uint256 royaltyCut = (price * royaltyFee) / 1000;\r\n        uint256 sellerAmount = price - fee - royaltyCut;\r\n         \r\n\r\n        nftContract.safeTransferFrom(seller, msg.sender, tokenId);\r\n        \r\n       \r\n        payable(seller).transfer(sellerAmount);\r\n        \r\n        creator.transfer(royaltyCut);\r\n        platformOwner.transfer(fee);\r\n      \r\n        \r\n        emit MarketItemSold(tokenId, seller, msg.sender, price);\r\n        \r\n        \r\n        if (msg.value > price) {\r\n            payable(msg.sender).transfer(msg.value - price);\r\n        }\r\n    }\r\n}",
  "sourcePath": "/home/zero/projects/Harmony-Chain-Music-NFT-Marketplace/contracts/MusicMarketplace.sol",
  "compiler": {
    "name": "solc",
    "version": "0.8.13+commit.abaa5c0e.Emscripten.clang"
  },
  "schemaVersion": "3.4.16",
  "updatedAt": "2025-04-25T02:11:34.894Z",
  "networkType": "ethereum",
  "devdoc": {
    "kind": "dev",
    "methods": {},
    "version": 1
  },
  "userdoc": {
    "kind": "user",
    "methods": {},
    "version": 1
  }
}