{
  "contractName": "MusicNFT",
  "abi": [
    {
      "inputs": [],
      "stateMutability": "nonpayable",
      "type": "constructor"
    },
    {
      "anonymous": false,
      "inputs": [
        {
          "indexed": true,
          "internalType": "address",
          "name": "owner",
          "type": "address"
        },
        {
          "indexed": true,
          "internalType": "address",
          "name": "approved",
          "type": "address"
        },
        {
          "indexed": true,
          "internalType": "uint256",
          "name": "tokenId",
          "type": "uint256"
        }
      ],
      "name": "Approval",
      "type": "event"
    },
    {
      "anonymous": false,
      "inputs": [
        {
          "indexed": true,
          "internalType": "address",
          "name": "owner",
          "type": "address"
        },
        {
          "indexed": true,
          "internalType": "address",
          "name": "operator",
          "type": "address"
        },
        {
          "indexed": false,
          "internalType": "bool",
          "name": "approved",
          "type": "bool"
        }
      ],
      "name": "ApprovalForAll",
      "type": "event"
    },
    {
      "anonymous": false,
      "inputs": [
        {
          "indexed": false,
          "internalType": "uint256",
          "name": "_fromTokenId",
          "type": "uint256"
        },
        {
          "indexed": false,
          "internalType": "uint256",
          "name": "_toTokenId",
          "type": "uint256"
        }
      ],
      "name": "BatchMetadataUpdate",
      "type": "event"
    },
    {
      "anonymous": false,
      "inputs": [
        {
          "indexed": false,
          "internalType": "uint256",
          "name": "_tokenId",
          "type": "uint256"
        }
      ],
      "name": "MetadataUpdate",
      "type": "event"
    },
    {
      "anonymous": false,
      "inputs": [
        {
          "indexed": false,
          "internalType": "uint256",
          "name": "tokenId",
          "type": "uint256"
        },
        {
          "indexed": false,
          "internalType": "string",
          "name": "title",
          "type": "string"
        },
        {
          "indexed": false,
          "internalType": "string",
          "name": "artist",
          "type": "string"
        },
        {
          "indexed": false,
          "internalType": "address",
          "name": "creator",
          "type": "address"
        }
      ],
      "name": "MusicMinted",
      "type": "event"
    },
    {
      "anonymous": false,
      "inputs": [
        {
          "indexed": false,
          "internalType": "uint256",
          "name": "tokenId",
          "type": "uint256"
        },
        {
          "indexed": false,
          "internalType": "uint256",
          "name": "newPrice",
          "type": "uint256"
        }
      ],
      "name": "MusicPriceChanged",
      "type": "event"
    },
    {
      "anonymous": false,
      "inputs": [
        {
          "indexed": false,
          "internalType": "uint256",
          "name": "tokenId",
          "type": "uint256"
        },
        {
          "indexed": false,
          "internalType": "address",
          "name": "from",
          "type": "address"
        },
        {
          "indexed": false,
          "internalType": "address",
          "name": "to",
          "type": "address"
        },
        {
          "indexed": false,
          "internalType": "uint256",
          "name": "price",
          "type": "uint256"
        }
      ],
      "name": "MusicSold",
      "type": "event"
    },
    {
      "anonymous": false,
      "inputs": [
        {
          "indexed": true,
          "internalType": "address",
          "name": "previousOwner",
          "type": "address"
        },
        {
          "indexed": true,
          "internalType": "address",
          "name": "newOwner",
          "type": "address"
        }
      ],
      "name": "OwnershipTransferred",
      "type": "event"
    },
    {
      "anonymous": false,
      "inputs": [
        {
          "indexed": true,
          "internalType": "address",
          "name": "from",
          "type": "address"
        },
        {
          "indexed": true,
          "internalType": "address",
          "name": "to",
          "type": "address"
        },
        {
          "indexed": true,
          "internalType": "uint256",
          "name": "tokenId",
          "type": "uint256"
        }
      ],
      "name": "Transfer",
      "type": "event"
    },
    {
      "inputs": [
        {
          "internalType": "address",
          "name": "to",
          "type": "address"
        },
        {
          "internalType": "uint256",
          "name": "tokenId",
          "type": "uint256"
        }
      ],
      "name": "approve",
      "outputs": [],
      "stateMutability": "nonpayable",
      "type": "function"
    },
    {
      "inputs": [
        {
          "internalType": "address",
          "name": "owner",
          "type": "address"
        }
      ],
      "name": "balanceOf",
      "outputs": [
        {
          "internalType": "uint256",
          "name": "",
          "type": "uint256"
        }
      ],
      "stateMutability": "view",
      "type": "function",
      "constant": true
    },
    {
      "inputs": [
        {
          "internalType": "uint256",
          "name": "tokenId",
          "type": "uint256"
        }
      ],
      "name": "getApproved",
      "outputs": [
        {
          "internalType": "address",
          "name": "",
          "type": "address"
        }
      ],
      "stateMutability": "view",
      "type": "function",
      "constant": true
    },
    {
      "inputs": [
        {
          "internalType": "address",
          "name": "owner",
          "type": "address"
        },
        {
          "internalType": "address",
          "name": "operator",
          "type": "address"
        }
      ],
      "name": "isApprovedForAll",
      "outputs": [
        {
          "internalType": "bool",
          "name": "",
          "type": "bool"
        }
      ],
      "stateMutability": "view",
      "type": "function",
      "constant": true
    },
    {
      "inputs": [
        {
          "internalType": "uint256",
          "name": "",
          "type": "uint256"
        }
      ],
      "name": "musicData",
      "outputs": [
        {
          "internalType": "string",
          "name": "title",
          "type": "string"
        },
        {
          "internalType": "string",
          "name": "artist",
          "type": "string"
        },
        {
          "internalType": "string",
          "name": "genre",
          "type": "string"
        },
        {
          "internalType": "uint256",
          "name": "price",
          "type": "uint256"
        },
        {
          "internalType": "address payable",
          "name": "creator",
          "type": "address"
        },
        {
          "internalType": "bool",
          "name": "isForSale",
          "type": "bool"
        },
        {
          "internalType": "string",
          "name": "coverURI",
          "type": "string"
        },
        {
          "internalType": "string",
          "name": "audioURI",
          "type": "string"
        }
      ],
      "stateMutability": "view",
      "type": "function",
      "constant": true
    },
    {
      "inputs": [],
      "name": "name",
      "outputs": [
        {
          "internalType": "string",
          "name": "",
          "type": "string"
        }
      ],
      "stateMutability": "view",
      "type": "function",
      "constant": true
    },
    {
      "inputs": [],
      "name": "owner",
      "outputs": [
        {
          "internalType": "address",
          "name": "",
          "type": "address"
        }
      ],
      "stateMutability": "view",
      "type": "function",
      "constant": true
    },
    {
      "inputs": [
        {
          "internalType": "uint256",
          "name": "tokenId",
          "type": "uint256"
        }
      ],
      "name": "ownerOf",
      "outputs": [
        {
          "internalType": "address",
          "name": "",
          "type": "address"
        }
      ],
      "stateMutability": "view",
      "type": "function",
      "constant": true
    },
    {
      "inputs": [],
      "name": "renounceOwnership",
      "outputs": [],
      "stateMutability": "nonpayable",
      "type": "function"
    },
    {
      "inputs": [
        {
          "internalType": "address",
          "name": "from",
          "type": "address"
        },
        {
          "internalType": "address",
          "name": "to",
          "type": "address"
        },
        {
          "internalType": "uint256",
          "name": "tokenId",
          "type": "uint256"
        }
      ],
      "name": "safeTransferFrom",
      "outputs": [],
      "stateMutability": "nonpayable",
      "type": "function"
    },
    {
      "inputs": [
        {
          "internalType": "address",
          "name": "from",
          "type": "address"
        },
        {
          "internalType": "address",
          "name": "to",
          "type": "address"
        },
        {
          "internalType": "uint256",
          "name": "tokenId",
          "type": "uint256"
        },
        {
          "internalType": "bytes",
          "name": "data",
          "type": "bytes"
        }
      ],
      "name": "safeTransferFrom",
      "outputs": [],
      "stateMutability": "nonpayable",
      "type": "function"
    },
    {
      "inputs": [
        {
          "internalType": "address",
          "name": "operator",
          "type": "address"
        },
        {
          "internalType": "bool",
          "name": "approved",
          "type": "bool"
        }
      ],
      "name": "setApprovalForAll",
      "outputs": [],
      "stateMutability": "nonpayable",
      "type": "function"
    },
    {
      "inputs": [
        {
          "internalType": "bytes4",
          "name": "interfaceId",
          "type": "bytes4"
        }
      ],
      "name": "supportsInterface",
      "outputs": [
        {
          "internalType": "bool",
          "name": "",
          "type": "bool"
        }
      ],
      "stateMutability": "view",
      "type": "function",
      "constant": true
    },
    {
      "inputs": [],
      "name": "symbol",
      "outputs": [
        {
          "internalType": "string",
          "name": "",
          "type": "string"
        }
      ],
      "stateMutability": "view",
      "type": "function",
      "constant": true
    },
    {
      "inputs": [
        {
          "internalType": "uint256",
          "name": "tokenId",
          "type": "uint256"
        }
      ],
      "name": "tokenURI",
      "outputs": [
        {
          "internalType": "string",
          "name": "",
          "type": "string"
        }
      ],
      "stateMutability": "view",
      "type": "function",
      "constant": true
    },
    {
      "inputs": [
        {
          "internalType": "address",
          "name": "from",
          "type": "address"
        },
        {
          "internalType": "address",
          "name": "to",
          "type": "address"
        },
        {
          "internalType": "uint256",
          "name": "tokenId",
          "type": "uint256"
        }
      ],
      "name": "transferFrom",
      "outputs": [],
      "stateMutability": "nonpayable",
      "type": "function"
    },
    {
      "inputs": [
        {
          "internalType": "address",
          "name": "newOwner",
          "type": "address"
        }
      ],
      "name": "transferOwnership",
      "outputs": [],
      "stateMutability": "nonpayable",
      "type": "function"
    },
    {
      "inputs": [
        {
          "internalType": "string",
          "name": "title",
          "type": "string"
        },
        {
          "internalType": "string",
          "name": "artist",
          "type": "string"
        },
        {
          "internalType": "string",
          "name": "genre",
          "type": "string"
        },
        {
          "internalType": "uint256",
          "name": "price",
          "type": "uint256"
        },
        {
          "internalType": "string",
          "name": "tokenURI",
          "type": "string"
        },
        {
          "internalType": "string",
          "name": "coverURI",
          "type": "string"
        },
        {
          "internalType": "string",
          "name": "audioURI",
          "type": "string"
        }
      ],
      "name": "mintMusic",
      "outputs": [
        {
          "internalType": "uint256",
          "name": "",
          "type": "uint256"
        }
      ],
      "stateMutability": "nonpayable",
      "type": "function"
    },
    {
      "inputs": [
        {
          "internalType": "uint256",
          "name": "tokenId",
          "type": "uint256"
        },
        {
          "internalType": "uint256",
          "name": "newPrice",
          "type": "uint256"
        }
      ],
      "name": "changePrice",
      "outputs": [],
      "stateMutability": "nonpayable",
      "type": "function"
    },
    {
      "inputs": [],
      "name": "getTotalMusicCount",
      "outputs": [
        {
          "internalType": "uint256",
          "name": "",
          "type": "uint256"
        }
      ],
      "stateMutability": "view",
      "type": "function",
      "constant": true
    },
    {
      "inputs": [
        {
          "internalType": "uint256",
          "name": "tokenId",
          "type": "uint256"
        }
      ],
      "name": "toggleForSale",
      "outputs": [],
      "stateMutability": "nonpayable",
      "type": "function"
    },
    {
      "inputs": [
        {
          "internalType": "uint256",
          "name": "tokenId",
          "type": "uint256"
        }
      ],
      "name": "getMusicInfo",
      "outputs": [
        {
          "components": [
            {
              "internalType": "string",
              "name": "title",
              "type": "string"
            },
            {
              "internalType": "string",
              "name": "artist",
              "type": "string"
            },
            {
              "internalType": "string",
              "name": "genre",
              "type": "string"
            },
            {
              "internalType": "uint256",
              "name": "price",
              "type": "uint256"
            },
            {
              "internalType": "address payable",
              "name": "creator",
              "type": "address"
            },
            {
              "internalType": "address",
              "name": "owner",
              "type": "address"
            },
            {
              "internalType": "bool",
              "name": "isForSale",
              "type": "bool"
            },
            {
              "internalType": "string",
              "name": "coverURI",
              "type": "string"
            },
            {
              "internalType": "string",
              "name": "audioURI",
              "type": "string"
            }
          ],
          "internalType": "struct MusicNFT.ViewMusic",
          "name": "",
          "type": "tuple"
        }
      ],
      "stateMutability": "view",
      "type": "function",
      "constant": true
    }
  ],
  "bytecode": "0x60806040523480156200001157600080fd5b50604080518082018252600c81526b2430b936b7b73ca1b430b4b760a11b6020808301918252835180850190945260058452641210d3919560da1b9084015281519192916200006391600091620000f2565b50805162000079906001906020840190620000f2565b50505062000096620000906200009c60201b60201c565b620000a0565b620001d4565b3390565b600780546001600160a01b038381166001600160a01b0319831681179093556040519116919082907f8be0079c531659141344cd1fd0a4f28419497f9722a3daafe3b4186f6b6457e090600090a35050565b828054620001009062000198565b90600052602060002090601f0160209004810192826200012457600085556200016f565b82601f106200013f57805160ff19168380011785556200016f565b828001600101855582156200016f579182015b828111156200016f57825182559160200191906001019062000152565b506200017d92915062000181565b5090565b5b808211156200017d576000815560010162000182565b600181811c90821680620001ad57607f821691505b602082108103620001ce57634e487b7160e01b600052602260045260246000fd5b50919050565b61250880620001e46000396000f3fe608060405234801561001057600080fd5b50600436106101425760003560e01c806385c98794116100b8578063aff9b07f1161007c578063aff9b07f146102b4578063b3de019c146102c7578063b88d4fde146102da578063c87b56dd146102ed578063e985e9c514610300578063f2fde38b1461033c57600080fd5b806385c98794146102555780638da5cb5b1461027557806395d89b4114610286578063a22cb4651461028e578063a32018b9146102a157600080fd5b806339fe5c4c1161010a57806339fe5c4c146101d757806342842e0e146101fe5780636352211e1461021157806366997f821461022457806370a082311461023a578063715018a61461024d57600080fd5b806301ffc9a71461014757806306fdde031461016f578063081812fc14610184578063095ea7b3146101af57806323b872dd146101c4575b600080fd5b61015a610155366004611d47565b61034f565b60405190151581526020015b60405180910390f35b61017761037a565b6040516101669190611dbc565b610197610192366004611dcf565b61040c565b6040516001600160a01b039091168152602001610166565b6101c26101bd366004611e04565b610433565b005b6101c26101d2366004611e2e565b61054d565b6101ea6101e5366004611dcf565b61057e565b604051610166989796959493929190611e6a565b6101c261020c366004611e2e565b610879565b61019761021f366004611dcf565b610894565b61022c6108f4565b604051908152602001610166565b61022c610248366004611efb565b610904565b6101c261098a565b610268610263366004611dcf565b61099e565b6040516101669190611f16565b6007546001600160a01b0316610197565b610177610dd1565b6101c261029c366004612000565b610de0565b6101c26102af366004611dcf565b610def565b61022c6102c23660046120e8565b610eae565b6101c26102d53660046121e8565b61103c565b6101c26102e836600461220a565b611114565b6101776102fb366004611dcf565b61114c565b61015a61030e366004612286565b6001600160a01b03918216600090815260056020908152604080832093909416825291909152205460ff1690565b6101c261034a366004611efb565b61125c565b60006001600160e01b03198216632483248360e11b14806103745750610374826112d5565b92915050565b606060008054610389906122b9565b80601f01602080910402602001604051908101604052809291908181526020018280546103b5906122b9565b80156104025780601f106103d757610100808354040283529160200191610402565b820191906000526020600020905b8154815290600101906020018083116103e557829003601f168201915b5050505050905090565b600061041782611325565b506000908152600460205260409020546001600160a01b031690565b600061043e82610894565b9050806001600160a01b0316836001600160a01b0316036104b05760405162461bcd60e51b815260206004820152602160248201527f4552433732313a20617070726f76616c20746f2063757272656e74206f776e656044820152603960f91b60648201526084015b60405180910390fd5b336001600160a01b03821614806104cc57506104cc813361030e565b61053e5760405162461bcd60e51b815260206004820152603d60248201527f4552433732313a20617070726f76652063616c6c6572206973206e6f7420746f60448201527f6b656e206f776e6572206f7220617070726f76656420666f7220616c6c00000060648201526084016104a7565b6105488383611375565b505050565b61055733826113e3565b6105735760405162461bcd60e51b81526004016104a7906122f3565b610548838383611461565b600960205260009081526040902080548190610599906122b9565b80601f01602080910402602001604051908101604052809291908181526020018280546105c5906122b9565b80156106125780601f106105e757610100808354040283529160200191610612565b820191906000526020600020905b8154815290600101906020018083116105f557829003601f168201915b505050505090806001018054610627906122b9565b80601f0160208091040260200160405190810160405280929190818152602001828054610653906122b9565b80156106a05780601f10610675576101008083540402835291602001916106a0565b820191906000526020600020905b81548152906001019060200180831161068357829003601f168201915b5050505050908060020180546106b5906122b9565b80601f01602080910402602001604051908101604052809291908181526020018280546106e1906122b9565b801561072e5780601f106107035761010080835404028352916020019161072e565b820191906000526020600020905b81548152906001019060200180831161071157829003601f168201915b5050505060038301546004840154600585018054949592946001600160a01b0383169450600160a01b90920460ff169291610768906122b9565b80601f0160208091040260200160405190810160405280929190818152602001828054610794906122b9565b80156107e15780601f106107b6576101008083540402835291602001916107e1565b820191906000526020600020905b8154815290600101906020018083116107c457829003601f168201915b5050505050908060060180546107f6906122b9565b80601f0160208091040260200160405190810160405280929190818152602001828054610822906122b9565b801561086f5780601f106108445761010080835404028352916020019161086f565b820191906000526020600020905b81548152906001019060200180831161085257829003601f168201915b5050505050905088565b61054883838360405180602001604052806000815250611114565b6000818152600260205260408120546001600160a01b0316806103745760405162461bcd60e51b8152602060048201526018602482015277115490cdcc8c4e881a5b9d985b1a59081d1bdad95b88125160421b60448201526064016104a7565b60006108ff60085490565b905090565b60006001600160a01b03821661096e5760405162461bcd60e51b815260206004820152602960248201527f4552433732313a2061646472657373207a65726f206973206e6f7420612076616044820152683634b21037bbb732b960b91b60648201526084016104a7565b506001600160a01b031660009081526003602052604090205490565b6109926115c5565b61099c600061161f565b565b610a016040518061012001604052806060815260200160608152602001606081526020016000815260200160006001600160a01b0316815260200160006001600160a01b0316815260200160001515815260200160608152602001606081525090565b610a0a82611671565b610a265760405162461bcd60e51b81526004016104a790612340565b60008281526009602052604080822081516101008101909252805482908290610a4e906122b9565b80601f0160208091040260200160405190810160405280929190818152602001828054610a7a906122b9565b8015610ac75780601f10610a9c57610100808354040283529160200191610ac7565b820191906000526020600020905b815481529060010190602001808311610aaa57829003601f168201915b50505050508152602001600182018054610ae0906122b9565b80601f0160208091040260200160405190810160405280929190818152602001828054610b0c906122b9565b8015610b595780601f10610b2e57610100808354040283529160200191610b59565b820191906000526020600020905b815481529060010190602001808311610b3c57829003601f168201915b50505050508152602001600282018054610b72906122b9565b80601f0160208091040260200160405190810160405280929190818152602001828054610b9e906122b9565b8015610beb5780601f10610bc057610100808354040283529160200191610beb565b820191906000526020600020905b815481529060010190602001808311610bce57829003601f168201915b50505091835250506003820154602082015260048201546001600160a01b0381166040830152600160a01b900460ff1615156060820152600582018054608090920191610c37906122b9565b80601f0160208091040260200160405190810160405280929190818152602001828054610c63906122b9565b8015610cb05780601f10610c8557610100808354040283529160200191610cb0565b820191906000526020600020905b815481529060010190602001808311610c9357829003601f168201915b50505050508152602001600682018054610cc9906122b9565b80601f0160208091040260200160405190810160405280929190818152602001828054610cf5906122b9565b8015610d425780601f10610d1757610100808354040283529160200191610d42565b820191906000526020600020905b815481529060010190602001808311610d2557829003601f168201915b50505050508152505090506040518061012001604052808260000151815260200182602001518152602001826040015181526020018260600151815260200182608001516001600160a01b03168152602001610d9d85610894565b6001600160a01b031681526020018260a00151151581526020018260c0015181526020018260e00151815250915050919050565b606060018054610389906122b9565b610deb33838361168e565b5050565b610df881611671565b610e145760405162461bcd60e51b81526004016104a790612340565b33610e1e82610894565b6001600160a01b031614610e7e5760405162461bcd60e51b815260206004820152602160248201527f4f6e6c79206f776e65722063616e20746f67676c652073616c652073746174756044820152607360f81b60648201526084016104a7565b6000908152600960205260409020600401805460ff60a01b198116600160a01b9182900460ff1615909102179055565b6000610ebe600880546001019055565b6000610ec960085490565b9050610ed5338261175c565b610edf81866118c9565b60408051610100810182528a815260208082018b90528183018a905260608201899052336080830152600160a083015260c0820187905260e08201869052600084815260098252929092208151805192939192610f3f9284920190611c98565b506020828101518051610f589260018501920190611c98565b5060408201518051610f74916002840191602090910190611c98565b5060608201516003820155608082015160048201805460a08501511515600160a01b026001600160a81b03199091166001600160a01b039093169290921791909117905560c08201518051610fd3916005840191602090910190611c98565b5060e08201518051610fef916006840191602090910190611c98565b509050507f8a911f8b1b84c3150e4b11484cb5a9dadd3438e2b1a9fe3ab4930e70ea9111ce818a8a336040516110289493929190612377565b60405180910390a198975050505050505050565b61104582611671565b6110615760405162461bcd60e51b81526004016104a790612340565b3361106b83610894565b6001600160a01b0316146110c15760405162461bcd60e51b815260206004820152601b60248201527f4f6e6c79206f776e65722063616e206368616e6765207072696365000000000060448201526064016104a7565b60008281526009602090815260409182902060030183905581518481529081018390527f5ade28b8c1c7b3588c66a45664b673202ddcc5ed98d76ab50d22011fd49e70b691015b60405180910390a15050565b61111e33836113e3565b61113a5760405162461bcd60e51b81526004016104a7906122f3565b61114684848484611985565b50505050565b606061115782611325565b60008281526006602052604081208054611170906122b9565b80601f016020809104026020016040519081016040528092919081815260200182805461119c906122b9565b80156111e95780601f106111be576101008083540402835291602001916111e9565b820191906000526020600020905b8154815290600101906020018083116111cc57829003601f168201915b50505050509050600061120760408051602081019091526000815290565b90508051600003611219575092915050565b81511561124b5780826040516020016112339291906123bc565b60405160208183030381529060405292505050919050565b611254846119b8565b949350505050565b6112646115c5565b6001600160a01b0381166112c95760405162461bcd60e51b815260206004820152602660248201527f4f776e61626c653a206e6577206f776e657220697320746865207a65726f206160448201526564647265737360d01b60648201526084016104a7565b6112d28161161f565b50565b60006001600160e01b031982166380ac58cd60e01b148061130657506001600160e01b03198216635b5e139f60e01b145b8061037457506301ffc9a760e01b6001600160e01b0319831614610374565b61132e81611671565b6112d25760405162461bcd60e51b8152602060048201526018602482015277115490cdcc8c4e881a5b9d985b1a59081d1bdad95b88125160421b60448201526064016104a7565b600081815260046020526040902080546001600160a01b0319166001600160a01b03841690811790915581906113aa82610894565b6001600160a01b03167f8c5be1e5ebec7d5bd14f71427d1e84f3dd0314c0f7b2291e5b200ac8c7c3b92560405160405180910390a45050565b6000806113ef83610894565b9050806001600160a01b0316846001600160a01b0316148061143657506001600160a01b0380821660009081526005602090815260408083209388168352929052205460ff165b806112545750836001600160a01b031661144f8461040c565b6001600160a01b031614949350505050565b826001600160a01b031661147482610894565b6001600160a01b03161461149a5760405162461bcd60e51b81526004016104a7906123eb565b6001600160a01b0382166114fc5760405162461bcd60e51b8152602060048201526024808201527f4552433732313a207472616e7366657220746f20746865207a65726f206164646044820152637265737360e01b60648201526084016104a7565b826001600160a01b031661150f82610894565b6001600160a01b0316146115355760405162461bcd60e51b81526004016104a7906123eb565b600081815260046020908152604080832080546001600160a01b03199081169091556001600160a01b0387811680865260038552838620805460001901905590871680865283862080546001019055868652600290945282852080549092168417909155905184937fddf252ad1be2c89b69c2b068fc378daa952ba7f163c4a11628f55a4df523b3ef91a4505050565b6007546001600160a01b0316331461099c5760405162461bcd60e51b815260206004820181905260248201527f4f776e61626c653a2063616c6c6572206973206e6f7420746865206f776e657260448201526064016104a7565b600780546001600160a01b038381166001600160a01b0319831681179093556040519116919082907f8be0079c531659141344cd1fd0a4f28419497f9722a3daafe3b4186f6b6457e090600090a35050565b6000908152600260205260409020546001600160a01b0316151590565b816001600160a01b0316836001600160a01b0316036116ef5760405162461bcd60e51b815260206004820152601960248201527f4552433732313a20617070726f766520746f2063616c6c65720000000000000060448201526064016104a7565b6001600160a01b03838116600081815260056020908152604080832094871680845294825291829020805460ff191686151590811790915591519182527f17307eab39ab6107e8899845ad3d59bd9653f200f220920489ca2b5937696c31910160405180910390a3505050565b6001600160a01b0382166117b25760405162461bcd60e51b815260206004820181905260248201527f4552433732313a206d696e7420746f20746865207a65726f206164647265737360448201526064016104a7565b6117bb81611671565b156118085760405162461bcd60e51b815260206004820152601c60248201527f4552433732313a20746f6b656e20616c7265616479206d696e7465640000000060448201526064016104a7565b61181181611671565b1561185e5760405162461bcd60e51b815260206004820152601c60248201527f4552433732313a20746f6b656e20616c7265616479206d696e7465640000000060448201526064016104a7565b6001600160a01b038216600081815260036020908152604080832080546001019055848352600290915280822080546001600160a01b0319168417905551839291907fddf252ad1be2c89b69c2b068fc378daa952ba7f163c4a11628f55a4df523b3ef908290a45050565b6118d282611671565b6119355760405162461bcd60e51b815260206004820152602e60248201527f45524337323155524953746f726167653a2055524920736574206f66206e6f6e60448201526d32bc34b9ba32b73a103a37b5b2b760911b60648201526084016104a7565b6000828152600660209081526040909120825161195492840190611c98565b506040518281527ff8e1a15aba9398e019f0b49df1a4fde98ee17ae345cb5f6b5e2c27f5033e8ce790602001611108565b611990848484611461565b61199c84848484611a2c565b6111465760405162461bcd60e51b81526004016104a790612430565b60606119c382611325565b60006119da60408051602081019091526000815290565b905060008151116119fa5760405180602001604052806000815250611a25565b80611a0484611b2d565b604051602001611a159291906123bc565b6040516020818303038152906040525b9392505050565b60006001600160a01b0384163b15611b2257604051630a85bd0160e11b81526001600160a01b0385169063150b7a0290611a70903390899088908890600401612482565b6020604051808303816000875af1925050508015611aab575060408051601f3d908101601f19168201909252611aa8918101906124b5565b60015b611b08573d808015611ad9576040519150601f19603f3d011682016040523d82523d6000602084013e611ade565b606091505b508051600003611b005760405162461bcd60e51b81526004016104a790612430565b805181602001fd5b6001600160e01b031916630a85bd0160e11b149050611254565b506001949350505050565b60606000611b3a83611bc0565b600101905060008167ffffffffffffffff811115611b5a57611b5a61203c565b6040519080825280601f01601f191660200182016040528015611b84576020820181803683370190505b5090508181016020015b600019016f181899199a1a9b1b9c1cb0b131b232b360811b600a86061a8153600a8504945084611b8e57509392505050565b60008072184f03e93ff9f4daa797ed6e38ed64bf6a1f0160401b8310611bff5772184f03e93ff9f4daa797ed6e38ed64bf6a1f0160401b830492506040015b6d04ee2d6d415b85acef81000000008310611c2b576d04ee2d6d415b85acef8100000000830492506020015b662386f26fc100008310611c4957662386f26fc10000830492506010015b6305f5e1008310611c61576305f5e100830492506008015b6127108310611c7557612710830492506004015b60648310611c87576064830492506002015b600a83106103745760010192915050565b828054611ca4906122b9565b90600052602060002090601f016020900481019282611cc65760008555611d0c565b82601f10611cdf57805160ff1916838001178555611d0c565b82800160010185558215611d0c579182015b82811115611d0c578251825591602001919060010190611cf1565b50611d18929150611d1c565b5090565b5b80821115611d185760008155600101611d1d565b6001600160e01b0319811681146112d257600080fd5b600060208284031215611d5957600080fd5b8135611a2581611d31565b60005b83811015611d7f578181015183820152602001611d67565b838111156111465750506000910152565b60008151808452611da8816020860160208601611d64565b601f01601f19169290920160200192915050565b602081526000611a256020830184611d90565b600060208284031215611de157600080fd5b5035919050565b80356001600160a01b0381168114611dff57600080fd5b919050565b60008060408385031215611e1757600080fd5b611e2083611de8565b946020939093013593505050565b600080600060608486031215611e4357600080fd5b611e4c84611de8565b9250611e5a60208501611de8565b9150604084013590509250925092565b6000610100808352611e7e8184018c611d90565b90508281036020840152611e92818b611d90565b90508281036040840152611ea6818a611d90565b606084018990526001600160a01b038816608085015286151560a085015283810360c08501529050611ed88186611d90565b905082810360e0840152611eec8185611d90565b9b9a5050505050505050505050565b600060208284031215611f0d57600080fd5b611a2582611de8565b6020815260008251610120806020850152611f35610140850183611d90565b91506020850151601f1980868503016040870152611f538483611d90565b93506040870151915080868503016060870152611f708483611d90565b93506060870151608087015260808701519150611f9860a08701836001600160a01b03169052565b60a08701516001600160a01b03811660c0880152915060c087015180151560e0880152915060e08701519150610100818786030181880152611fda8584611d90565b908801518782039092018488015293509050611ff68382611d90565b9695505050505050565b6000806040838503121561201357600080fd5b61201c83611de8565b91506020830135801515811461203157600080fd5b809150509250929050565b634e487b7160e01b600052604160045260246000fd5b600067ffffffffffffffff8084111561206d5761206d61203c565b604051601f8501601f19908116603f011681019082821181831017156120955761209561203c565b816040528093508581528686860111156120ae57600080fd5b858560208301376000602087830101525050509392505050565b600082601f8301126120d957600080fd5b611a2583833560208501612052565b600080600080600080600060e0888a03121561210357600080fd5b873567ffffffffffffffff8082111561211b57600080fd5b6121278b838c016120c8565b985060208a013591508082111561213d57600080fd5b6121498b838c016120c8565b975060408a013591508082111561215f57600080fd5b61216b8b838c016120c8565b965060608a0135955060808a013591508082111561218857600080fd5b6121948b838c016120c8565b945060a08a01359150808211156121aa57600080fd5b6121b68b838c016120c8565b935060c08a01359150808211156121cc57600080fd5b506121d98a828b016120c8565b91505092959891949750929550565b600080604083850312156121fb57600080fd5b50508035926020909101359150565b6000806000806080858703121561222057600080fd5b61222985611de8565b935061223760208601611de8565b925060408501359150606085013567ffffffffffffffff81111561225a57600080fd5b8501601f8101871361226b57600080fd5b61227a87823560208401612052565b91505092959194509250565b6000806040838503121561229957600080fd5b6122a283611de8565b91506122b060208401611de8565b90509250929050565b600181811c908216806122cd57607f821691505b6020821081036122ed57634e487b7160e01b600052602260045260246000fd5b50919050565b6020808252602d908201527f4552433732313a2063616c6c6572206973206e6f7420746f6b656e206f776e6560408201526c1c881bdc88185c1c1c9bdd9959609a1b606082015260800190565b60208082526018908201527f4d75736963204e465420646f6573206e6f742065786973740000000000000000604082015260600190565b8481526080602082015260006123906080830186611d90565b82810360408401526123a28186611d90565b91505060018060a01b038316606083015295945050505050565b600083516123ce818460208801611d64565b8351908301906123e2818360208801611d64565b01949350505050565b60208082526025908201527f4552433732313a207472616e736665722066726f6d20696e636f72726563742060408201526437bbb732b960d91b606082015260800190565b60208082526032908201527f4552433732313a207472616e7366657220746f206e6f6e20455243373231526560408201527131b2b4bb32b91034b6b83632b6b2b73a32b960711b606082015260800190565b6001600160a01b0385811682528416602082015260408101839052608060608201819052600090611ff690830184611d90565b6000602082840312156124c757600080fd5b8151611a2581611d3156fea26469706673582212205b75c647a361e52c091e56d76464bcbf22a1f4a34492c5e5fc91de257b4e164564736f6c634300080d0033",
  "immutableReferences": {},
  "source": "// SPDX-License-Identifier: MIT\r\npragma solidity ^0.8.13;\r\n\r\nimport \"@openzeppelin/contracts/token/ERC721/extensions/ERC721URIStorage.sol\";\r\nimport \"@openzeppelin/contracts/utils/Counters.sol\";\r\nimport \"@openzeppelin/contracts/access/Ownable.sol\";\r\n\r\ncontract MusicNFT is ERC721URIStorage, Ownable {\r\n    using Counters for Counters.Counter;\r\n    Counters.Counter private _tokenIds;\r\n    \r\n  \r\n    struct Music {\r\n        string title;\r\n        string artist;\r\n        string genre;\r\n        uint256 price;\r\n        address payable creator;\r\n        bool isForSale;\r\n        string coverURI;\r\n        string audioURI;\r\n    }\r\n    \r\n    struct ViewMusic {\r\n    string title;\r\n    string artist;\r\n    string genre;\r\n    uint256 price;\r\n    address payable creator;\r\n    address owner;\r\n    bool isForSale;\r\n    string coverURI;\r\n    string audioURI;\r\n}\r\n    \r\n    mapping(uint256 => Music) public musicData;\r\n    \r\n  \r\n    event MusicMinted(uint256 tokenId, string title, string artist, address creator);\r\n    event MusicPriceChanged(uint256 tokenId, uint256 newPrice);\r\n    event MusicSold(uint256 tokenId, address from, address to, uint256 price);\r\n    \r\n    constructor() ERC721(\"HarmonyChain\", \"HCNFT\") {}\r\n    \r\n  \r\n    function mintMusic(\r\n        string memory title,\r\n        string memory artist,\r\n        string memory genre,\r\n        uint256 price,\r\n        string memory tokenURI,\r\n        string memory coverURI,\r\n        string memory audioURI\r\n    ) public returns (uint256) {\r\n        _tokenIds.increment();\r\n        \r\n        uint256 newTokenId = _tokenIds.current();\r\n        _mint(msg.sender, newTokenId);\r\n        _setTokenURI(newTokenId, tokenURI);\r\n        \r\n        musicData[newTokenId] = Music({\r\n            title: title,\r\n            artist: artist,\r\n            genre: genre,\r\n            price: price,\r\n            creator: payable(msg.sender),\r\n            isForSale: true,\r\n            coverURI: coverURI,\r\n            audioURI: audioURI\r\n        });\r\n        \r\n        emit MusicMinted(newTokenId, title, artist, msg.sender);\r\n        \r\n        return newTokenId;\r\n    }\r\n    \r\n    function changePrice(uint256 tokenId, uint256 newPrice) public {\r\n        require(_exists(tokenId), \"Music NFT does not exist\");\r\n        require(ownerOf(tokenId) == msg.sender, \"Only owner can change price\");\r\n        \r\n        musicData[tokenId].price = newPrice;\r\n        emit MusicPriceChanged(tokenId, newPrice);\r\n    }\r\n    \r\n   \r\n    function getTotalMusicCount() public view returns (uint256) {\r\n        return _tokenIds.current();\r\n    }\r\n\r\n    function toggleForSale(uint256 tokenId) public {\r\n        require(_exists(tokenId), \"Music NFT does not exist\");\r\n        require(ownerOf(tokenId) == msg.sender, \"Only owner can toggle sale status\");\r\n\r\n        musicData[tokenId].isForSale = !musicData[tokenId].isForSale;\r\n    }\r\n    \r\n   \r\n    function getMusicInfo(uint256 tokenId) public view returns (\r\n      ViewMusic memory\r\n    ) {\r\n        require(_exists(tokenId), \"Music NFT does not exist\");\r\n        \r\n        Music memory music = musicData[tokenId];\r\n        \r\n       return ViewMusic({\r\n        title: music.title,\r\n        artist: music.artist,\r\n        genre: music.genre,\r\n        price: music.price,\r\n        creator: music.creator,\r\n        owner: ownerOf(tokenId),\r\n        isForSale: music.isForSale,\r\n        coverURI: music.coverURI,\r\n        audioURI: music.audioURI\r\n    });\r\n    }\r\n}",
  "sourcePath": "/home/zero/projects/Harmony-Chain-Music-NFT-Marketplace/contracts/MusicNFT.sol",
  "compiler": {
    "name": "solc",
    "version": "0.8.13+commit.abaa5c0e.Emscripten.clang"
  },
  "schemaVersion": "3.4.16",
  "updatedAt": "2025-04-25T02:11:34.886Z",
  "networkType": "ethereum",
  "devdoc": {
    "kind": "dev",
    "methods": {
      "approve(address,uint256)": {
        "details": "See {IERC721-approve}."
      },
      "balanceOf(address)": {
        "details": "See {IERC721-balanceOf}."
      },
      "getApproved(uint256)": {
        "details": "See {IERC721-getApproved}."
      },
      "isApprovedForAll(address,address)": {
        "details": "See {IERC721-isApprovedForAll}."
      },
      "name()": {
        "details": "See {IERC721Metadata-name}."
      },
      "owner()": {
        "details": "Returns the address of the current owner."
      },
      "ownerOf(uint256)": {
        "details": "See {IERC721-ownerOf}."
      },
      "renounceOwnership()": {
        "details": "Leaves the contract without owner. It will not be possible to call `onlyOwner` functions. Can only be called by the current owner. NOTE: Renouncing ownership will leave the contract without an owner, thereby disabling any functionality that is only available to the owner."
      },
      "safeTransferFrom(address,address,uint256)": {
        "details": "See {IERC721-safeTransferFrom}."
      },
      "safeTransferFrom(address,address,uint256,bytes)": {
        "details": "See {IERC721-safeTransferFrom}."
      },
      "setApprovalForAll(address,bool)": {
        "details": "See {IERC721-setApprovalForAll}."
      },
      "supportsInterface(bytes4)": {
        "details": "See {IERC165-supportsInterface}"
      },
      "symbol()": {
        "details": "See {IERC721Metadata-symbol}."
      },
      "tokenURI(uint256)": {
        "details": "See {IERC721Metadata-tokenURI}."
      },
      "transferFrom(address,address,uint256)": {
        "details": "See {IERC721-transferFrom}."
      },
      "transferOwnership(address)": {
        "details": "Transfers ownership of the contract to a new account (`newOwner`). Can only be called by the current owner."
      }
    },
    "version": 1
  },
  "userdoc": {
    "kind": "user",
    "methods": {},
    "version": 1
  }
}